S00E000053454E534F522E737265633C
S11300000C9475000C9492000C9492000C94920041
S11300100C9492000C9404040C9492000C9492009E
S11300200C9492000C9492000C9492000C94920004
S11300300C9492000C9492000C9492000C949200F4
S11300400C9492000C9492000C9492000C949200E4
S11300500C9492000C9492000C9492000C949200D4
S11300600C9492000C94920007634236B79BD8A775
S11300701A39685618AEBAAB558C1D3CB7CC5763C9
S1130080BD6DEDFD753EF6177231BF000000803F77
S113009008000000BE922449123EABAAAA2ABECD93
S11300A0CCCC4C3E00000080BEABAAAAAA3E000005
S11300B00000BF000000803F0000000000084178FD
S11300C0D3BB4387D1133D190E3CC3BD4282AD2B34
S11300D03E68EC8276BED98FE1A93E4C80EFFFBE2C
S11300E001C4FF7F3F000000000011241FBECFEFBA
S11300F0D8E0DEBFCDBF12E0A0E0B1E0E8EAFBE16A
S113010002C005900D92AC35B107D9F722E0ACE5F9
S1130110B2E001C01D92AE35B207E1F70E94490476
S11301200C94D20D0C940000ECE7F0E080818F7DFC
S1130130808380818064808380818F778083EAE7F5
S1130140F0E080818160808380818260808380810F
S11301508460808317B8089590917C00907F909379
S11301607C0090917C00892B80937C0080917A00A4
S1130170806880937A0085E38A95F1F70000809186
S11301807A00806480937A0080917A0084FFFCCFA7
S113019080917A00806180937A0080917A008F77D1
S11301A080937A00609178007091790080E090E00B
S11301B00E94E408089580E091E00E94AD068AE080
S11301C00E94A60646EB60EE86E70E9449068EE092
S11301D091E00E94AD068AE00E94A60647E564EF1E
S11301E086E70E9449068FE191E00E94AD068AE00D
S11301F00E94A60640E165EF86E70E9449068BE26D
S113020091E00E94AD068AE00C94A606CF93DF939A
S1130210C82F682F86E70E946A06D82F61E06C0F0A
S113022086E70E946A062D2F30E0A901582BCA01E7
S1130230DF91CF9108958F929F92AF92BF92CF9208
S1130240DF92EF92FF92CF93DF936AEF86E70E94EB
S11302506A06C82F6BEF86E70E946A06C82E6CEF09
S113026086E70E946A06D12CE12CF12CFE2CED2CA1
S1130270DC2CCC24EC2AC82A88E80E9406015C0104
S11302808AE80E940601EC018CE80E940601FC0148
S1130290C501A0E0B0E08D2C9E2CAF2CBB24A7FCA4
S11302A0BA94881A990AAA0ABB0AB701A60137E0C8
S11302B075956795579547953A95D1F7880F991F86
S11302C0AA1FBB1F9A01AB01281B390B4A0B5B0BFE
S11302D0DE010E94000C6B017C013BE0F594E79485
S11302E0D794C7943A95D1F7A5019401C501B401F7
S11302F00E94B20B9B01AC016CE055954795379574
S113030027956A95D1F7DF010E94000CDC01CB012F
S11303107EE0B595A795979587957A95D1F7BC0119
S1130320CD016C0D7D1D8E1D9F1DDF91CF91FF9022
S1130330EF90DF90CF90BF90AF909F908F900895F3
S11303400E941B019B01AC01A5E0B0E00E94F50BEB
S1130350DC01CB0180589F4FAF4FBF4F692F7A2FDD
S11303608B2F992787FD9A9524E630E040E050E0F2
S11303700E94D60BCA01B9010E94E60808952F9283
S11303803F924F925F926F927F928F929F92AF9221
S1130390BF92CF92DF92EF92FF920F931F93CF936E
S11303A0DF93CDB7DEB7A4970FB6F894DEBF0FBEC8
S11303B0CDBF67EF86E70E946A068C8F68EF86E7F9
S11303C00E946A068D8F69EF86E70E946A068E8F07
S11303D08EE80E9406019B878A8780E90E940601B5
S11303E0982E9F8B82E90E940601282E9E8B84E919
S11303F00E9406018F8F998B86E90E94060188A3CB
S11304009A8B88E90E94060189A399878AE90E9448
S113041006018AA39B8B8CE90E9406018BA39C8B0B
S11304208EE90E9406018CA39D8B0E941B016B0127
S11304307C01FF0CCC08DC2C76019B01AC016C2DFB
S11304407C2D8C2D9C2D345F41405109610971092B
S11304508109910929833A834B835C836D837E836D
S11304608F83988759016A017B018C010E94080CD3
S11304702C873D874E875F87688B798F8A8F9B8F08
S1130480292D9F89990F990B3F89492F592F692F3E
S1130490792F892F0E94080C0CE00E94380D322E0F
S11304A0432E542E652E762E872E982E9F8B222D2A
S11304B09E89990F990BAC84BD84CE84DF84E8882F
S11304C0F98C0A8D1B8D3E89492F592F692F792F5D
S11304D0892F0E94080C08E00E94510DA32CB42C13
S11304E0C52CD62CE72CF82C092D1F890E946F0DE2
S11304F070588F4F9F4FEA85FB855F01C12CD12C2B
S1130500E12CF12C00E010E00E94080C01E20E94B2
S1130510510D2A873E8B4F8B452E562E372E282E73
S1130520988FA0E00E94810D09F41EC1FD8D8F2FCC
S113053090E0A0E0B0E0BA2FA92F982F88272C8D47
S1130540A22B3C014D01EE8D6E2A29A19985990FAC
S1130550990BAC84BD84CE84DF84E888F98C0A8D41
S11305601B8D3985492F592F692F792F892F0E9487
S1130570080C29873C874D875E876F87788B8A8F25
S1130580998F28A19A89990F990BA980BA80CB8059
S1130590DC80ED80FE800F8118853A89492F592F20
S11305A0692F792F892F0E94080C01E10E94380DD0
S11305B0A984BC84CD84DE84EF84F8880A8D198DE7
S11305C00E946F0D59016A017B018983192FB401BF
S11305D0A30134E075956795579547953A95D1F7FA
S11305E080E090E0A0E1B0E0841B950BA60BB70B74
S11305F03C014D01990C6608762C43019C01AD0128
S1130600662D762D862D962D0FE10E94380D490119
S11306104B835A83B62FA72FF82FE92F2F8D998953
S1130620990F990B3989492F592F692F792F892FC0
S113063003E20E94380D09810E946F0D59016A017D
S11306407B018C0194014B815A816B2F7A2F8F2F60
S11306509E2F0E94780DE5E3AE2EFCE0BF2EC12C48
S1130660D12CE12CF12C00E010E00E94080CAA84AB
S1130670BE88CF88D42CE52CF32C022D188D0E9433
S1130680630C28873F8349835A836B837C838D83E0
S11306909E830DE00E94510D922E292E2CA19D893E
S11306A0990F990BA92CB32EC42ED52EE62EF72E16
S11306B0082F122D3D89492F592F692F792F892F02
S11306C00E94080C0E94080C09E10E94510DA884A4
S11306D0BF80C980DA80EB80FC800D811E810E947E
S11306E06F0D19012A013B014C012BA19C89990F23
S11306F0990B3C89492F592F692F792F892F0E94F3
S1130700080C03E10E94510D59016A017B018C011F
S11307109101A201B301C4010E946F0D08E00E947F
S1130720510D59016A017B01E82F192F2AA19B89D8
S1130730990F990B3B89492F592F692F792F892FAD
S113074004E00E94380D0E2F0E946F0DA12CA4E628
S1130750BA2EC12CD12CE12CF12C00E010E00E9427
S1130760630C0E94DE0803C060E070E0CB01A49635
S11307700FB6F894DEBF0FBECDBFDF91CF911F91AE
S11307800F91FF90EF90DF90CF90BF90AF909F902C
S11307908F907F906F905F904F903F902F9008952F
S11307A080E090E00E94AC0020E030E040EA50E4B9
S11307B00E94C00920E030E040E85AE30E94C009EA
S11307C020E030E048EC52E40E94C00920E030E030
S11307D040E950E40E943608089581E090E00E94C8
S11307E0AC002FEF3FEF4FE95BE30E94C00920E02C
S11307F030E048EC52E40E94C00923E333E948E8BE
S113080053E40E94C90708951F920F920FB60F92E6
S113081011242F933F934F935F936F937F938F9301
S11308209F93AF93BF93EF93FF934A9B05C010929E
S11308308500109284001CC0609184007091850032
S1130840F89480E090E00E94E40821E233E94CE06F
S11308505DE30E94C00920E030E040E85EE30E94CE
S1130860C0090E94AF0870935D0260935C027894A3
S1130870FF91EF91BF91AF919F918F917F916F9174
S11308805F914F913F912F910F900FBE0F901F904A
S11308901895F89489E391E00E94AD068AE00E94DD
S11308A0A6060E94950683E491E00E94AD068AE0C4
S11308B00E94A6060E9494008CE491E00E94AD067A
S11308C08AE00E94A6060E94E90585E591E00E945F
S11308D0AD068AE00E94A6060E94DB0081E691E054
S11308E00E94AD068AE00E94A6060E9453058EE689
S11308F091E00E94AD068AE00E94A6060E94990734
S113090088E791E00E94AD068AE00E94A6068FE384
S11309109CE90197F1F700C0000078940E94ED0370
S11309204B015C010E94D0036B017C01C501B40141
S11309300E94B90683E891E00E94AD068AE00E9415
S1130940A606C701B6010E94B9068BE891E00E9491
S1130950AD068AE00E94A6060E94BF016B017C01DD
S113096080E991E00E94AD06C701B6010E94B90674
S11309708AE00E94A6060E94A0016B017C0182EA23
S113098091E00E94AD06C701B6010E94B9068AE053
S11309900E94A60681E090E00E949B057C0182E013
S11309A090E00E949B058C0183E090E00E949B05EF
S11309B0EC0182EB91E00E94AD06B701FF0C880BBD
S11309C0990B0E94E6080E94B9068AEB91E00E9406
S11309D0AD06B801110F880B990B0E94E6080E941E
S11309E0B90685EC91E00E94AD06BE01DD0F880BCF
S11309F0990B0E94E6080E94B9068AE00E94A606A6
S1130A0081E090E00E94C2057C0182E090E00E94B7
S1130A10C2058C0183E090E00E94C205EC0180EDE8
S1130A2091E00E94AD06B701FF0C880B990B0E9460
S1130A30E6080E94B90689ED91E00E94AD06B8016E
S1130A40110F880B990B0E94E6080E94B90685EEE7
S1130A5091E00E94AD06BE01DD0F880B990B0E9448
S1130A60E6080E94B9068AE00E94A6060E94B90719
S1130A7060915C0270915D0280E090E00E94E40865
S1130A800E94B90681EF91E00E94AD068AE00E94BF
S1130A90A6069FEF29E688E1915020408040E1F7C7
S1130AA000C000003BCF85EF91E00E94AD068AE0D4
S1130AB00E94A60640E06BE688E60E94490686E0AE
S1130AC092E00E94AD068AE00E94A60641E06AE137
S1130AD088E60E94490688E192E00E94AD068AE019
S1130AE00E94A60640E06BE188E60E94490689E27E
S1130AF092E00E94AD068AE00E94A60640E06CE106
S1130B0088E60E9449068AE392E00E94AD068AE0E4
S1130B100E94A60640E068E388E60E9449068BE44A
S1130B2092E00E94AD068AE00E94A60647E068E6CD
S1130B3088E60C944906CF938130910539F46BE330
S1130B4088E60E946A06C82F6CE312C082309105C1
S1130B5039F46DE388E60E946A06C82F6EE308C084
S1130B60039751F46FE388E60E946A06C82F60E495
S1130B7088E60E946A0602C08FEFCFEF90E09C2BBC
S1130B80CF910895CF938130910539F463E488E6D9
S1130B900E946A06C82F64E412C08230910539F4B9
S1130BA065E488E60E946A06C82F66E408C00397D5
S1130BB051F467E488E60E946A06C82F68E488E670
S1130BC00E946A0602C08FEFCFEF90E09C2BCF917A
S1130BD008951092B90080E28093B80010926400E6
S1130BE0089584EA8093BC008091BC0087FFFCCF09
S1130BF09091B900987F81E0983009F480E00895DD
S1130C0084EA8093BC008091BC0087FFFCCF909164
S1130C10B900987F81E0903109F480E00895880F4D
S1130C20662319F0816040E401C048E18093BB0071
S1130C3084E88093BC008091BC0087FFFCCF2091A6
S1130C40B900287F30E050E081E02417350709F42B
S1130C5080E008958093BB0084E88093BC00809179
S1130C60BC0087FFFCCF9091B900987F81E0983257
S1130C7009F480E0089520E4829FC001112484686F
S1130C808093BC008091BC0087FFFCCF8091BB00A7
S1130C9008951F93CF93DF93182FD62FC42F0E944C
S1130CA0F1058111FCCF60E0812F0E940F068111B4
S1130CB0FACF8D2F0E942A068111FBCF8C2F0E9420
S1130CC02A068111FBCF84E98093BC00DF91CF9188
S1130CD01F910895CF93DF93C82FD62F0E94F1055B
S1130CE08111FCCF60E08C2F0E940F068111FACF96
S1130CF08D2F0E942A068111FBCF0E9400068111CC
S1130D00FCCF61E08C2F0E940F068111FACF0E9464
S1130D103B0694E99093BC00EFE8F1E03197F1F7DA
S1130D2000C00000DF91CF910895519A509810921D
S1130D30C00088E98093C10086E08093C20087E602
S1130D4090E09093C5008093C40008959091C000F2
S1130D5095FFFCCF8093C6000895CF93DF93EC01F9
S1130D608991882319F00E94A606FACFDF91CF91CA
S1130D7008953F924F925F926F927F928F929F92CB
S1130D80AF92BF92CF92DF92EF92FF920F931F9395
S1130D90CF93DF93CDB7DEB72A970FB6F894DEBFB3
S1130DA00FBECDBF2B013C010E94A808DB0177FFD9
S1130DB00AC0AA27BB27A61BB70B77FA709477F84B
S1130DC0709440E001C041E0FE01319620E030E043
S1130DD07F010AE010E0D22EAA30B1054CF0CD011B
S1130DE0B8010E94C20B8193DB012F5F3F4FF3CF09
S1130DF0109741F0D394F701E20FF31FA083411140
S1130E000BC002C0411103C08DE20E94A606D1109E
S1130E1003C01982DD24D3940D2D10E0E00EF11EE1
S1130E20CC24C394D12C81E0E81AF1080C151D05DB
S1130E307CF1F701308080E3830D0E94A606B8019F
S1130E406C197D09072E000C880B990B0E94E6088B
S1130E509B01AC0160E070E080E291E40E942D0A05
S1130E604B015C01632D70E080E090E00E94E60895
S1130E70A50194010E94C0099B01AC01C301B20108
S1130E800E94C9072B013C01FFEFCF1ADF0ACBCF29
S1130E908EE20E94A60620E030E040E251E4C30165
S1130EA0B2010E94C0096B017C0120E030E040E403
S1130EB052E40E94CA070E94AF08862F0E94A60629
S1130EC0C701B6010E94A808062E000C770B880BF8
S1130ED0990B0E94E6089B01AC01C701B6010E9470
S1130EE0C90720E030E040E251E40E94C00920E05C
S1130EF030E040E452E40E94CA070E94AF08862F03
S1130F002A960FB6F894DEBF0FBECDBFDF91CF9106
S1130F101F910F91FF90EF90DF90CF90BF90AF9013
S1130F209F908F907F906F905F904F903F900C9424
S1130F30A606539A52985B98E1E8F0E080818E7F90
S1130F40808380818260808380818B7F80838081A5
S1130F50806480831092850010928400E8E6F0E0BB
S1130F60808184608083EDE6F0E08081846080830A
S1130F7008955B9A2AE02A95F1F700C05B988FEFF9
S1130F809DEE22E0815090402040E1F700C0000037
S1130F9008955058BB27AA270E94E1070C9486099C
S1130FA00E94780938F00E947F0920F039F49F3FAD
S1130FB019F426F40C9465090EF4E095E7FB0C94FF
S1130FC05F09E92F0E94970958F3BA17620773075C
S1130FD08407950720F079F4A6F50C94B9090EF46A
S1130FE0E0950B2EBA2FA02D0B01B90190010C0135
S1130FF0CA01A0011124FF27591B99F0593F50F44D
S1131000503E68F11A16F040A22F232F342F4427A4
S1131010585FF3CF469537952795A795F04053959C
S1131020C9F77EF41F16BA0B620B730B840BBAF06C
S11310309150A1F0FF0FBB1F661F771F881FC2F7D7
S11310400EC0BA0F621F731F841F48F487957795EB
S11310506795B795F7959E3F08F0B0CF9395880FA5
S113106008F09927EE0F9795879508950E944A08EE
S11310700C9486090E947F0958F00E94780940F078
S113108029F45F3F29F00C945F0951110C94BA09BB
S11310900C9465090E94970968F39923B1F35523C9
S11310A091F3951B550BBB27AA2762177307840777
S11310B038F09F5F5F4F220F331F441FAA1FA9F30D
S11310C035D00E2E3AF0E0E832D091505040E695FB
S11310D0001CCAF72BD0FE2F29D0660F771F881F5C
S11310E0BB1F261737074807AB07B0E809F0BB0B4F
S11310F0802DBF01FF2793585F4F3AF09E3F510563
S113110078F00C945F090C94BA095F3FE4F3983EBD
S1131110D4F3869577956795B795F7959F5FC9F74B
S1131120880F911D9695879597F90895E1E0660FCC
S1131130771F881FBB1F621773078407BA0720F045
S1131140621B730B840BBA0BEE1F88F7E0950895AE
S11311500E94AF086894B1110C94BA0908950E94D2
S11311609F0988F09F5798F0B92F9927B751B0F08D
S1131170E1F0660F771F881F991F1AF0BA95C9F717
S113118014C0B13091F00E94B909B1E008950C94F3
S1131190B909672F782F8827B85F39F0B93FCCF3A6
S11311A0869577956795B395D9F73EF49095809594
S11311B0709561957F4F8F4F9F4F089597FB16F45D
S11311C00E9468090C942209E89409C097FB3EF434
S11311D090958095709561957F4F8F4F9F4F992380
S11311E0A9F0F92F96E9BB279395F69587957795FE
S11311F06795B795F111F8CFFAF4BB0F11F460FFBE
S11312001BC06F5F7F4F8F4F9F4F16C0882311F015
S113121096E911C0772321F09EE8872F762F05C029
S1131220662371F096E8862F70E060E02AF09A95C4
S1131230660F771F881FDAF7880F9695879597F9B9
S11312400895E894F92F96EBFF2381F01216130604
S11312501406440B9395F69587957795679557955E
S11312604040FF23B9F71BC099270895882351F400
S11312709850D2F7872B762F652F542F432F322F78
S113128020E0B1F3121613061406440B88233AF037
S11312909A95440F551F661F771F881FCAF7552359
S11312A04AF4440F551F11F460FF04C06F5F7F4F71
S11312B08F4F9F4F880F9695879597F9089597F9C3
S11312C09F6780E870E060E008959FEF80EC0895E8
S11312D090958095709560955095409530952195A1
S11312E03F4F4F4F5F4F6F4F7F4F8F4F9F4F08952B
S11312F000240A94161617061806090608950024F1
S11313000A9412161306140605060895092E03946A
S1131310000C11F4882352F0BB0F40F4BF2B11F4DE
S113132060FF04C06F5F7F4F8F4F9F4F089557FD3D
S11313309058440F551F59F05F3F71F04795880F3F
S113134097FB991F61F09F3F79F0879508951216D6
S113135013061406551FF2CF4695F1DF08C0161682
S113136017061806991FF1CF869571056105089433
S11313700895E894BB2766277727CB0197F908954A
S11313800E94D3090C9486090E94780938F00E94BF
S11313907F0920F0952311F00C945F090C946509E2
S11313A011240C94BA090E94970970F3959FC1F314
S11313B0950F50E0551F629FF001729FBB27F00DFF
S11313C0B11D639FAA27F00DB11DAA1F649F662754
S11313D0B00DA11D661F829F2227B00DA11D621FA3
S11313E0739FB00DA11D621F839FA00D611D221F5D
S11313F0749F3327A00D611D231F849F600D211D41
S1131400822F762F6A2F11249F5750409AF0F1F0C3
S113141088234AF0EE0FFF1FBB1F661F771F881F2C
S113142091505040A9F79E3F510580F00C945F09FC
S11314300C94BA095F3FE4F3983ED4F3869577950C
S11314406795B795F795E7959F5FC1F7FE2B880FD2
S1131450911D9695879597F90895FA01EE0FFF1F50
S1131460309621053105A1F16115710561F48038CB
S1131470BFE39B0749F168949038810561F0803897
S1131480BFEF9B0741F099234AF5FF3FE105310582
S1131490210519F1E8940894E795D901AA2329F4C0
S11314A0AB2FBE2FF85FD0F310C0FF5F70F4A6958A
S11314B0E0F7F73950F019F0FF3A38F49F779F932B
S11314C00DD00F9007FC9058089546F00C946509D0
S11314D060E070E080E89FE308954FE79F775F93B3
S11314E04F933F932F930E94280B2F913F914F913D
S11314F05F910E94C0090C94850A29F416F00C949B
S11315005F090C94B9090C9465090E949F09A8F31A
S11315109638A0F707F80F92E8942BE33AEA48EBE1
S11315205FE70E94D6090F920F920F924DB75EB7F4
S11315300F920E94700BE8E6F0E00E94B70A4F9108
S11315405F91EF91FF91E595EE1FFF1F49F0FE5764
S1131550E0684427EE0F441FFA95E1F74195550BD7
S11315600E94EA0A0F9007FE0C94DE0A0895DF93A6
S1131570CF931F930F93FF92EF92DF927B018C0125
S1131580689406C0DA2EEF010E94D309FE01E894A4
S1131590A5912591359145915591A6F3EF010E94AE
S11315A0E107FE019701A801DA9469F7DF90EF9053
S11315B0FF900F911F91CF91DF9108959B01AC0192
S11315C060E070E080E89FE30C9436080C945F09B7
S11315D00C94A40B0E949F09D8F39923C9F3940F88
S11315E0511DA3F39150504094F059F0882332F0E8
S11315F0660F771F881F91505040C1F79E3F5105D9
S11316002CF7880F911D9695879597F908955F3F5C
S1131610ACF0983E9CF0BB27869577956795B79577
S113162008F4B1609395C1F7BB0F58F711F460FF4C
S1131630E8CF6F5F7F4F8F4F9F4FE3CF0C94BA0972
S113164016F00C94A40B0C94650968940C945F092F
S11316500E949F09A8F39923C1F3AEF3DF93CF93BC
S11316601F930F93FF92C92FDD2788232AF0219718
S1131670660F771F881FDAF720E030E040E85FEB61
S11316809FE3883920F0803E38F021968F770E94BE
S1131690CA07E0E9F0E004C00E94CA07EDEBF0E0FD
S11316A00E94B70A8B01BE01EC01FB2E6F57710932
S11316B07595771F880B990B0E94E60828E132E79D
S11316C041E35FE30E94D309AF2D9801AE01FF907F
S11316D00F911F91CF91DF910E94E1070C9486092D
S11316E0FA01DC01AA0FBB1F9B01AC01BF5728F410
S11316F0222733274427507820C0B75190F4AB2FCA
S11317000024469537952795011CA395D2F3002014
S113171071F0220F331F441FB395DAF30ED00C94EB
S1131720C90761307105A0E88A07B94630F49B0106
S1131730AC016627772788279078309621F020839C
S113174031834283538308959F3F31F0915020F4B5
S1131750879577956795B795880F911D9695879589
S113176097F90895DB018F939F930E94F50BBF9126
S1131770AF91A29F800D911DA39F900DB29F900DDC
S11317801124089597FB072E16F4009407D077FDD3
S113179009D00E948D0D07FC05D03EF490958195EB
S11317A09F4F0895709561957F4F0895052E97FB7F
S11317B01EF400940E94ED0B57FD07D00E94A10D6A
S11317C007FC03D04EF40C94ED0B509540953095E6
S11317D021953F4F4F4F5F4F089590958095709599
S11317E061957F4F8F4F9F4F08950E94C30DA59F12
S11317F0900DB49F900DA49F800D911D1124089508
S1131800B7FF0C94F50B0E94F50B821B930B089504
S1131810DF93CF931F930F939A9DF02D219FF00D8B
S11318208B9DF00D8A9DE02DF10D039FF00D029F1D
S1131830E00DF11D4E9DE00DF11D5E9DF00D4F9DDF
S1131840F00D7F936F93BF92AF925F934F93D50147
S11318500E94C30D8B01AC01D7010E94C30DEB01A3
S1131860E80FF91FD6010E94580C2F913F91D60121
S11318700E94C30DC60FD71FE81FF91FAF91BF9178
S11318800E94580C2F913F910E94C30DC60FD71F81
S1131890E81FF91FD6010E94C30DE60FF71F980138
S11318A0BE01CF0111240F911F91CF91DF910895B3
S11318B00E94C30D460F571FC81FD91F08F4319645
S11318C00895689401C0E894F92FF12B12F00C9458
S11318D0950CA0E0B0E0EFE6FCE00C94070D092EB7
S11318E0059422F40E94F10C112392F4F0E80F26DF
S11318F0FFEFE094F09400951095B094C094D094C8
S1131900A194BF0ACF0ADF0AEF0AFF0A0F0B1F0BCD
S11319100E94A00C07FC0E94F10CCDB7DEB7ECE0EE
S11319200C94230D689401C0E8948F929F92CF93F6
S1131930DF930E94A00CDF91CF919F908F90089528
S113194088249924F401E401B0E49F93AA279A150A
S11319508B049C04ED05FE05CF05D007A10798F480
S1131960AD2FDC2FCF2FFE2FE92D982C892E982F09
S1131970872F762F652F542F432F322F2227B850CD
S113198031F7BF9127C01B2EBF91BB27220F331FF6
S1131990441F551F661F771F881F991F881C991C99
S11319A0EE1FFF1FCC1FDD1FAA1FBB1F8A149B0441
S11319B0EC05FD05CE05DF05A007B10748F08A1840
S11319C09B08EC09FD09CE09DF09A00BB10B2160CE
S11319D01A94E1F62EF49401AF01BE01CD01000C7E
S11319E008956095709580959095309540955095A3
S11319F021953F4F4F4F5F4F6F4F7F4F8F4F9F4FFB
S1131A0008952F923F924F925F926F927F928F929E
S1131A109F92AF92BF92CF92DF92EF92FF920F9379
S1131A201F93CF93DF93CDB7DEB7CA1BDB0B0FB683
S1131A30F894DEBF0FBECDBF09942A883988488840
S1131A405F846E847D848C849B84AA84B984C884D6
S1131A50DF80EE80FD800C811B81AA81B981CE0FCD
S1131A60D11D0FB6F894DEBF0FBECDBFED010895B2
S1131A700F93083090F0982F872F762F652F542FCF
S1131A80432F322F22270850F4CF220F331F441F35
S1131A90551F661F771F881F991F0A95B2F70F916C
S1131AA0089597FB10F8169400080F93083098F0E7
S1131AB00850232F342F452F562F672F782F892F27
S1131AC0902DF4CF059497958795779567955795BD
S1131AD04795379527950A95AAF70F9108952A0DEA
S1131AE03B1D4C1D5D1D6E1D7F1D801F911F0895A4
S1131AF02A193B094C095D096E097F09800B910B7A
S1131B0008950024A7FD00942A17300540055005C8
S1131B1060057005800590050895AA1BBB1B51E163
S1131B2007C0AA1FBB1FA617B70710F0A61BB70B49
S1131B30881F991F5A95A9F780959095BC01CD01EE
S1131B400895A1E21A2EAA1BBB1BFD010DC0AA1FFA
S1131B50BB1FEE1FFF1FA217B307E407F50720F012
S1131B60A21BB30BE40BF50B661F771F881F991F8D
S1131B701A9469F760957095809590959B01AC01D6
S1131B80BD01CF010895A29FB001B39FC001A39FDF
S1131B90700D811D1124911DB29F700D811D1124A2
S10B1BA0911D0895F894FFCF94
S1131BA8424D503A205245534554204F4E00424D21
S1131BB8503A204E4F524D414C204D4F444500421F
S1131BC84D503A20434F4E46494700424D503A2023
S1131BD8454E4420494E495400494E4954205541E4
S1131BE8525400494E49542041444300494E4954F3
S1131BF82054574900494E495420424D50323830F8
S1131C0800494E4954204D50553630353000494E20
S1131C1849542055534F4E0031306D732064656C20
S1131C286179002067726164204300206261720058
S1131C3850726573696F6E20696E7465726E613A6D
S1131C48200054656D706572617475726120313A53
S1131C58200041636320583A2000207C20416363BC
S1131C6820593A2000207C20416363205A3A2000FE
S1131C784779726F20583A2000207C204779726F88
S1131C8820593A2000207C204779726F205A3A2044
S1131C980020636D004D50553A205072696D65728D
S1131CA820696E6974004D50553A20536567756E06
S1131CB8646F20696E6974004D50553A20546572FA
S1131CC863657220696E6974004D50553A204375F6
S1131CD86172746F20696E6974004D50553A2051D1
S1131CE875696E746F20696E6974004D50553A2099
S10F1CF8536578746F20696E69740000F5
S9030000FC
