:100000000C9475000C948A000C948A000C948A005D
:100010000C948A000C948A000C948A000C948A0038
:100020000C948A000C948A000C948A000C948A0028
:100030000C948A000C948A000C948A000C948A0018
:100040000C948A000C948A000C948A000C948A0008
:100050000C948A000C948A000C948A000C948A00F8
:100060000C948A000C948A0007634236B79BD8A789
:100070001A39685618AEBAAB558C1D3CB7CC5763CD
:10008000BD6DEDFD753EF6177231BF000000803F7B
:1000900008000000BE922449123EABAAAA2ABECD97
:1000A000CCCC4C3E00000080BEABAAAAAA3E000009
:1000B0000000BF000000803F000000000008417801
:1000C000D3BB4387D1133D190E3CC3BD4282AD2B38
:1000D0003E68EC8276BED98FE1A93E4C80EFFFBE30
:1000E00001C4FF7F3F000000000011241FBECFEFBE
:1000F000D8E0DEBFCDBF12E0A0E0B1E0E4E7F9E177
:1001000002C005900D92A034B107D9F70E9499035F
:100110000C94B80C0C940000ECE7F0E080818F7D2B
:10012000808380818064808380818F778083EAE709
:10013000F0E0808181608083808182608083808123
:100140008460808317B8089580E091E00E94C30521
:100150008AE00E94BC0546EB60EE86E70E945F05E0
:100160008EE091E00E94C3058AE00E94BC0547E54D
:1001700064EF86E70E945F058FE191E00E94C3056E
:100180008AE00E94BC0540E165EF86E70E945F05BA
:100190008BE291E00E94C3058AE00C94BC05CF93EA
:1001A000DF93C82F682F86E70E948005D82F61E073
:1001B0006C0F86E70E9480052D2F30E0A901582B97
:1001C000CA01DF91CF9108958F929F92AF92BF9213
:1001D000CF92DF92EF92FF92CF93DF936AEF86E7A1
:1001E0000E948005C82F6BEF86E70E948005C82E0D
:1001F0006CEF86E70E948005D12CE12CF12CFE2CBF
:10020000ED2CDC2CCC24EC2AC82A88E80E94CF00F4
:100210005C018AE80E94CF00EC018CE80E94CF00CC
:10022000FC01C501A0E0B0E08D2C9E2CAF2CBB24BE
:10023000A7FCBA94881A990AAA0ABB0AB701A601B0
:1002400037E075956795579547953A95D1F7880F9B
:10025000991FAA1FBB1F9A01AB01281B390B4A0B20
:100260005B0BDE010E94E60A6B017C013BE0F5942A
:10027000E794D794C7943A95D1F7A5019401C501A5
:10028000B4010E94980A9B01AC016CE0559547951A
:10029000379527956A95D1F7DF010E94E60ADC01C0
:1002A000CB017EE0B595A795979587957A95D1F77F
:1002B000BC01CD016C0D7D1D8E1D9F1DDF91CF9169
:1002C000FF90EF90DF90CF90BF90AF909F908F9076
:1002D00008950E94E4009B01AC01A5E0B0E00E94FB
:1002E000DB0ADC01CB0180589F4FAF4FBF4F692F16
:1002F0007A2F8B2F992787FD9A9524E630E040E0EE
:1003000050E00E94BC0ACA01B9010E94CC070895BE
:100310002F923F924F925F926F927F928F929F9215
:10032000AF92BF92CF92DF92EF92FF920F931F9303
:10033000CF93DF93CDB7DEB7A4970FB6F894DEBFA7
:100340000FBECDBF67EF86E70E9480058C8F68EFF8
:1003500086E70E9480058D8F69EF86E70E94800501
:100360008E8F8EE80E94CF009B878A8780E90E944B
:10037000CF00982E9F8B82E90E94CF00282E9E8B63
:1003800084E90E94CF008F8F998B86E90E94CF006D
:1003900088A39A8B88E90E94CF0089A399878AE96C
:1003A0000E94CF008AA39B8B8CE90E94CF008BA375
:1003B0009C8B8EE90E94CF008CA39D8B0E94E40051
:1003C0006B017C01FF0CCC08DC2C76019B01AC019D
:1003D0006C2D7C2D8C2D9C2D345F41405109610981
:1003E00071098109910929833A834B835C836D8369
:1003F0007E838F83988759016A017B018C010E945B
:10040000EE0A2C873D874E875F87688B798F8A8FAE
:100410009B8F292D9F89990F990B3F89492F592F20
:10042000692F792F892F0E94EE0A0CE00E941E0C82
:10043000322E432E542E652E762E872E982E9F8B8D
:10044000222D9E89990F990BAC84BD84CE84DF84C4
:10045000E888F98C0A8D1B8D3E89492F592F692F09
:10046000792F892F0E94EE0A08E00E94370CA32CF6
:10047000B42CC52CD62CE72CF82C092D1F890E94F2
:10048000550C70588F4F9F4FEA85FB855F01C12C3B
:10049000D12CE12CF12C00E010E00E94EE0A01E2E8
:1004A0000E94370C2A873E8B4F8B452E562E372EB7
:1004B000282E988FA0E00E94670C09F41EC1FD8DC4
:1004C0008F2F90E0A0E0B0E0BA2FA92F982F8827B7
:1004D0002C8DA22B3C014D01EE8D6E2A29A1998510
:1004E000990F990BAC84BD84CE84DF84E888F98CA5
:1004F0000A8D1B8D3985492F592F692F792F892F07
:100500000E94EE0A29873C874D875E876F87788B2C
:100510008A8F998F28A19A89990F990BA980BA80FF
:10052000CB80DC80ED80FE800F8118853A89492FD1
:10053000592F692F792F892F0E94EE0A01E10E941D
:100540001E0CA984BC84CD84DE84EF84F8880A8DD7
:10055000198D0E94550C59016A017B018983192F5D
:10056000B401A30134E075956795579547953A9581
:10057000D1F780E090E0A0E1B0E0841B950BA60BE2
:10058000B70B3C014D01990C6608762C43019C0188
:10059000AD01662D762D862D962D0FE10E941E0C45
:1005A00049014B835A83B62FA72FF82FE92F2F8DA0
:1005B0009989990F990B3989492F592F692F792FCB
:1005C000892F03E20E941E0C09810E94550C5901DB
:1005D0006A017B018C0194014B815A816B2F7A2F28
:1005E0008F2F9E2F0E945E0CE5E3AE2EFCE0BF2E07
:1005F000C12CD12CE12CF12C00E010E00E94EE0A7D
:10060000AA84BE88CF88D42CE52CF32C022D188D1B
:100610000E94490B28873F8349835A836B837C83DD
:100620008D839E830DE00E94370C922E292E2CA1E3
:100630009D89990F990BA92CB32EC42ED52EE62E89
:10064000F72E082F122D3D89492F592F692F792F09
:10065000892F0E94EE0A0E94EE0A09E10E94370CDF
:10066000A884BF80C980DA80EB80FC800D811E8168
:100670000E94550C19012A013B014C012BA19C89B8
:10068000990F990B3C89492F592F692F792F892F61
:100690000E94EE0A03E10E94370C59016A017B01B6
:1006A0008C019101A201B301C4010E94550C08E024
:1006B0000E94370C59016A017B01E82F192F2AA1EA
:1006C0009B89990F990B3B89492F592F692F792FB6
:1006D000892F04E00E941E0C0E2F0E94550CA12CA5
:1006E000A4E6BA2EC12CD12CE12CF12C00E010E0B4
:1006F0000E94490B0E94C40703C060E070E0CB0178
:10070000A4960FB6F894DEBF0FBECDBFDF91CF9198
:100710001F910F91FF90EF90DF90CF90BF90AF901F
:100720009F908F907F906F905F904F903F902F9011
:100730000895F89489E391E00E94C3058AE00E943D
:10074000BC050E94AB0583E491E00E94C3058AE0EA
:100750000E94BC050E948C008CE491E00E94C305BD
:100760008AE00E94BC050E94FF0485E591E00E949A
:10077000C3058AE00E94BC050E94A40081E691E0C6
:100780000E94C3058AE00E94BC050E9469048EE6AF
:1007900091E00E94C3058AE00E94BC058FE39CE9BA
:1007A0000197F1F700C0000078940E9488016B0166
:1007B0007C0189E791E00E94C305C701B6010E9450
:1007C000CF058AE00E94BC050E9469016B017C0193
:1007D0008BE891E00E94C305C701B6010E94CF05D6
:1007E0008AE00E94BC0581E090E00E94B1047C0197
:1007F00082E090E00E94B1048C0183E090E00E94CE
:10080000B104EC018BE991E00E94C305B701FF0C34
:10081000880B990B0E94CC070E94CF0583EA91E0D8
:100820000E94C305B801110F880B990B0E94CC07D9
:100830000E94CF058EEA91E00E94C305BE01DD0F44
:10084000880B990B0E94CC070E94CF058AE00E947A
:10085000BC0581E090E00E94D8047C0182E090E039
:100860000E94D8048C0183E090E00E94D804EC013F
:1008700089EB91E00E94C305B701FF0C880B990B2F
:100880000E94CC070E94CF0582EC91E00E94C30534
:10089000B801110F880B990B0E94CC070E94CF055D
:1008A0008EEC91E00E94C305BE01DD0F880B990B11
:1008B0000E94CC070E94CF058AE00E94BC059FEFF2
:1008C00029E688E1915020408040E1F700C0000017
:1008D0006CCF8AED91E00E94C3058AE00E94BC05BE
:1008E00040E06BE688E60E945F058BEE91E00E9497
:1008F000C3058AE00E94BC0541E06AE188E60E94E7
:100900005F058DEF91E00E94C3058AE00E94BC055F
:1009100040E06BE188E60E945F058EE092E00E9475
:10092000C3058AE00E94BC0540E06CE188E60E94B5
:100930005F058FE192E00E94C3058AE00E94BC053A
:1009400040E068E388E60E945F0580E392E00E9451
:10095000C3058AE00E94BC0547E068E688E60C947F
:100960005F05CF938130910539F46BE388E60E94EF
:100970008005C82F6CE312C08230910539F46DE315
:1009800088E60E948005C82F6EE308C0039751F4E3
:100990006FE388E60E948005C82F60E488E60E9425
:1009A000800502C08FEFCFEF90E09C2BCF91089590
:1009B000CF938130910539F463E488E60E94800585
:1009C000C82F64E412C08230910539F465E488E6EA
:1009D0000E948005C82F66E408C0039751F467E4BD
:1009E00088E60E948005C82F68E488E60E9480059A
:1009F00002C08FEFCFEF90E09C2BCF910895109223
:100A0000B90080E28093B80010926400089584EAEF
:100A10008093BC008091BC0087FFFCCF9091B9000F
:100A2000987F81E0983009F480E0089584EA80930B
:100A3000BC008091BC0087FFFCCF9091B900987FEB
:100A400081E0903109F480E00895880F662319F061
:100A5000816040E401C048E18093BB0084E880935A
:100A6000BC008091BC0087FFFCCF2091B900287F9B
:100A700030E050E081E02417350709F480E0089564
:100A80008093BB0084E88093BC008091BC0087FF0A
:100A9000FCCF9091B900987F81E0983209F480E012
:100AA000089520E4829FC001112484688093BC00D3
:100AB0008091BC0087FFFCCF8091BB0008951F93FD
:100AC000CF93DF93182FD62FC42F0E9407058111D3
:100AD000FCCF60E0812F0E9425058111FACF8D2F78
:100AE0000E9440058111FBCF8C2F0E94400581118F
:100AF000FBCF84E98093BC00DF91CF911F910895D3
:100B0000CF93DF93C82FD62F0E9407058111FCCF0A
:100B100060E08C2F0E9425058111FACF8D2F0E9455
:100B200040058111FBCF0E9416058111FCCF61E0C9
:100B30008C2F0E9425058111FACF0E94510594E95E
:100B40009093BC00EFE8F1E03197F1F700C00000AE
:100B5000DF91CF910895519A50981092C00088E982
:100B60008093C10086E08093C20087E690E0909376
:100B7000C5008093C40008959091C00095FFFCCFFC
:100B80008093C6000895CF93DF93EC018991882369
:100B900019F00E94BC05FACFDF91CF9108953F92E2
:100BA0004F925F926F927F928F929F92AF92BF927D
:100BB000CF92DF92EF92FF920F931F93CF93DF9329
:100BC000CDB7DEB72A970FB6F894DEBF0FBECDBF04
:100BD0002B013C010E948E07DB0177FF0AC0AA2788
:100BE000BB27A61BB70B77FA709477F8709440E098
:100BF00001C041E0FE01319620E030E07F010AE0D3
:100C000010E0D22EAA30B1054CF0CD01B8010E94FF
:100C1000A80A8193DB012F5F3F4FF3CF109741F07C
:100C2000D394F701E20FF31FA08341110BC002C060
:100C3000411103C08DE20E94BC05D11003C019828E
:100C4000DD24D3940D2D10E0E00EF11ECC24C394CE
:100C5000D12C81E0E81AF1080C151D057CF1F70193
:100C6000308080E3830D0E94BC05B8016C197D09BA
:100C7000072E000C880B990B0E94CC079B01AC013E
:100C800060E070E080E291E40E9413094B015C0196
:100C9000632D70E080E090E00E94CC07A5019401F4
:100CA0000E94A6089B01AC01C301B2010E94AF06DD
:100CB0002B013C01FFEFCF1ADF0ACBCF8EE20E945F
:100CC000BC0520E030E040E251E4C301B2010E94E3
:100CD000A6086B017C0120E030E040E452E40E9471
:100CE000B0060E949507862F0E94BC05C701B60179
:100CF0000E948E07062E000C770B880B990B0E9422
:100D0000CC079B01AC01C701B6010E94AF0620E0F1
:100D100030E040E251E40E94A60820E030E040E4E8
:100D200052E40E94B0060E949507862F2A960FB6BD
:100D3000F894DEBF0FBECDBFDF91CF911F910F9111
:100D4000FF90EF90DF90CF90BF90AF909F908F90EB
:100D50007F906F905F904F903F900C94BC055058DF
:100D6000BB27AA270E94C7060C946C080E945E0845
:100D700038F00E94650820F039F49F3F19F426F4FA
:100D80000C944B080EF4E095E7FB0C944508E92F12
:100D90000E947D0858F3BA17620773078407950706
:100DA00020F079F4A6F50C949F080EF4E0950B2E34
:100DB000BA2FA02D0B01B90190010C01CA01A001AD
:100DC0001124FF27591B99F0593F50F4503E68F108
:100DD0001A16F040A22F232F342F4427585FF3CF49
:100DE000469537952795A795F0405395C9F77EF41A
:100DF0001F16BA0B620B730B840BBAF09150A1F063
:100E0000FF0FBB1F661F771F881FC2F70EC0BA0FE8
:100E1000621F731F841F48F4879577956795B79570
:100E2000F7959E3F08F0B0CF9395880F08F099276B
:100E3000EE0F9795879508950E9430070C946C08E3
:100E40000E94650858F00E945E0840F029F45F3F58
:100E500029F00C94450851110C94A0080C944B08EF
:100E60000E947D0868F39923B1F3552391F3951BF4
:100E7000550BBB27AA2762177307840738F09F5FBB
:100E80005F4F220F331F441FAA1FA9F335D00E2E28
:100E90003AF0E0E832D091505040E695001CCAF795
:100EA0002BD0FE2F29D0660F771F881FBB1F261758
:100EB00037074807AB07B0E809F0BB0B802DBF012F
:100EC000FF2793585F4F3AF09E3F510578F00C94FE
:100ED00045080C94A0085F3FE4F3983ED4F3869550
:100EE00077956795B795F7959F5FC9F7880F911D1F
:100EF0009695879597F90895E1E0660F771F881F0B
:100F0000BB1F621773078407BA0720F0621B730BBD
:100F1000840BBA0BEE1F88F7E09508950E949507A1
:100F20006894B1110C94A00808950E94850888F077
:100F30009F5798F0B92F9927B751B0F0E1F0660F9D
:100F4000771F881F991F1AF0BA95C9F714C0B130DE
:100F500091F00E949F08B1E008950C949F08672FBC
:100F6000782F8827B85F39F0B93FCCF3869577950D
:100F70006795B395D9F73EF49095809570956195F6
:100F80007F4F8F4F9F4F089597FB16F40E944E0896
:100F90000C940808E89409C097FB3EF4909580955E
:100FA000709561957F4F8F4F9F4F9923A9F0F92F2F
:100FB00096E9BB279395F695879577956795B795AD
:100FC000F111F8CFFAF4BB0F11F460FF1BC06F5F93
:100FD0007F4F8F4F9F4F16C0882311F096E911C0A5
:100FE000772321F09EE8872F762F05C0662371F0C6
:100FF00096E8862F70E060E02AF09A95660F771FDA
:10100000881FDAF7880F9695879597F90895E894E1
:10101000F92F96EBFF2381F0121613061406440BEA
:101020009395F69587957795679557954040FF235B
:10103000B9F71BC099270895882351F49850D2F727
:10104000872B762F652F542F432F322F20E0B1F3BB
:10105000121613061406440B88233AF09A95440F8F
:10106000551F661F771F881FCAF755234AF4440F80
:10107000551F11F460FF04C06F5F7F4F8F4F9F4F6C
:10108000880F9695879597F9089597F99F6780E857
:1010900070E060E008959FEF80EC08959095809552
:1010A0007095609550954095309521953F4F4F4FE5
:1010B0005F4F6F4F7F4F8F4F9F4F089500240A94CB
:1010C0001616170618060906089500240A94121623
:1010D0001306140605060895092E0394000C11F456
:1010E000882352F0BB0F40F4BF2B11F460FF04C003
:1010F0006F5F7F4F8F4F9F4F089557FD9058440F5C
:10110000551F59F05F3F71F04795880F97FB991F66
:1011100061F09F3F79F08795089512161306140623
:10112000551FF2CF4695F1DF08C0161617061806B0
:10113000991FF1CF86957105610508940895E8948B
:10114000BB2766277727CB0197F908950E94B90836
:101150000C946C080E945E0838F00E94650820F02C
:10116000952311F00C9445080C944B0811240C9411
:10117000A0080E947D0870F3959FC1F3950F50E081
:10118000551F629FF001729FBB27F00DB11D639F39
:10119000AA27F00DB11DAA1F649F6627B00DA11DDF
:1011A000661F829F2227B00DA11D621F739FB00D85
:1011B000A11D621F839FA00D611D221F749F3327F5
:1011C000A00D611D231F849F600D211D822F762F8E
:1011D0006A2F11249F5750409AF0F1F088234AF06B
:1011E000EE0FFF1FBB1F661F771F881F91505040D7
:1011F000A9F79E3F510580F00C9445080C94A00877
:101200005F3FE4F3983ED4F3869577956795B7955D
:10121000F795E7959F5FC1F7FE2B880F911D969577
:10122000879597F90895FA01EE0FFF1F3096210573
:101230003105A1F16115710561F48038BFE39B07A9
:1012400049F168949038810561F08038BFEF9B07C1
:1012500041F099234AF5FF3FE1053105210519F1D8
:10126000E8940894E795D901AA2329F4AB2FBE2F5F
:10127000F85FD0F310C0FF5F70F4A695E0F7F73980
:1012800050F019F0FF3A38F49F779F930DD00F90EC
:1012900007FC9058089546F00C944B0860E070E00D
:1012A00080E89FE308954FE79F775F934F933F93C5
:1012B0002F930E940E0A2F913F914F915F910E94B0
:1012C000A6080C946B0929F416F00C9445080C94AC
:1012D0009F080C944B080E948508A8F39638A0F745
:1012E00007F80F92E8942BE33AEA48EB5FE70E9495
:1012F000BC080F920F920F924DB75EB70F920E94EB
:10130000560AE8E6F0E00E949D094F915F91EF9147
:10131000FF91E595EE1FFF1F49F0FE57E068442757
:10132000EE0F441FFA95E1F74195550B0E94D00945
:101330000F9007FE0C94C4090895DF93CF931F9379
:101340000F93FF92EF92DF927B018C01689406C0AD
:10135000DA2EEF010E94B908FE01E894A5912591CB
:10136000359145915591A6F3EF010E94C706FE0104
:101370009701A801DA9469F7DF90EF90FF900F9141
:101380001F91CF91DF9108959B01AC0160E070E067
:1013900080E89FE30C941C070C9445080C948A0A7F
:1013A0000E948508D8F39923C9F3940F511DA3F324
:1013B0009150504094F059F0882332F0660F771F17
:1013C000881F91505040C1F79E3F51052CF7880F60
:1013D000911D9695879597F908955F3FACF0983EDB
:1013E0009CF0BB27869577956795B79508F4B16013
:1013F0009395C1F7BB0F58F711F460FFE8CF6F5F0B
:101400007F4F8F4F9F4FE3CF0C94A00816F00C94A2
:101410008A0A0C944B0868940C9445080E9485082D
:10142000A8F39923C1F3AEF3DF93CF931F930F93E8
:10143000FF92C92FDD2788232AF02197660F771F97
:10144000881FDAF720E030E040E85FEB9FE388395F
:1014500020F0803E38F021968F770E94B006E0E9B8
:10146000F0E004C00E94B006EDEBF0E00E949D09A0
:101470008B01BE01EC01FB2E6F5771097595771F2B
:10148000880B990B0E94CC0728E132E741E35FE328
:101490000E94B908AF2D9801AE01FF900F911F91E6
:1014A000CF91DF910E94C7060C946C08FA01DC0111
:1014B000AA0FBB1F9B01AC01BF5728F4222733277B
:1014C0004427507820C0B75190F4AB2F00244695A4
:1014D00037952795011CA395D2F3002071F0220FB8
:1014E000331F441FB395DAF30ED00C94AF0661306E
:1014F0007105A0E88A07B94630F49B01AC01662764
:10150000772788279078309621F020833183428393
:10151000538308959F3F31F0915020F4879577953C
:101520006795B795880F911D9695879597F90895BA
:10153000DB018F939F930E94DB0ABF91AF91A29F23
:10154000800D911DA39F900DB29F900D11240895C1
:1015500097FB072E16F4009407D077FD09D00E9460
:10156000730C07FC05D03EF4909581959F4F08952C
:10157000709561957F4F0895052E97FB1EF400949A
:101580000E94D30A57FD07D00E94870C07FC03D0A6
:101590004EF40C94D30A50954095309521953F4FC9
:1015A0004F4F5F4F089590958095709561957F4F4F
:1015B0008F4F9F4F08950E94A90CA59F900DB49F37
:1015C000900DA49F800D911D11240895B7FF0C94D8
:1015D000DB0A0E94DB0A821B930B0895DF93CF93F3
:1015E0001F930F939A9DF02D219FF00D8B9DF00D71
:1015F0008A9DE02DF10D039FF00D029FE00DF11D7E
:101600004E9DE00DF11D5E9DF00D4F9DF00D7F9301
:101610006F93BF92AF925F934F93D5010E94A90C35
:101620008B01AC01D7010E94A90CEB01E80FF91F57
:10163000D6010E943E0B2F913F91D6010E94A90C2A
:10164000C60FD71FE81FF91FAF91BF910E943E0B35
:101650002F913F910E94A90CC60FD71FE81FF91FB9
:10166000D6010E94A90CE60FF71F9801BE01CF0119
:1016700011240F911F91CF91DF9108950E94A90C21
:10168000460F571FC81FD91F08F431960895689454
:1016900001C0E894F92FF12B12F00C947B0BA0E021
:1016A000B0E0E5E5FBE00C94ED0B092E059422F487
:1016B0000E94D70B112392F4F0E80F26FFEFE0947D
:1016C000F09400951095B094C094D094A194BF0A62
:1016D000CF0ADF0AEF0AFF0A0F0B1F0B0E94860BCF
:1016E00007FC0E94D70BCDB7DEB7ECE00C94090CD9
:1016F000689401C0E8948F929F92CF93DF930E94E9
:10170000860BDF91CF919F908F9008958824992424
:10171000F401E401B0E49F93AA279A158B049C047A
:10172000ED05FE05CF05D007A10798F4AD2FDC2FFE
:10173000CF2FFE2FE92D982C892E982F872F762FCB
:10174000652F542F432F322F2227B85031F7BF91E6
:1017500027C01B2EBF91BB27220F331F441F551FCD
:10176000661F771F881F991F881C991CEE1FFF1F7B
:10177000CC1FDD1FAA1FBB1F8A149B04EC05FD05AF
:10178000CE05DF05A007B10748F08A189B08EC09D1
:10179000FD09CE09DF09A00BB10B21601A94E1F617
:1017A0002EF49401AF01BE01CD01000C08956095A7
:1017B00070958095909530954095509521953F4F27
:1017C0004F4F5F4F6F4F7F4F8F4F9F4F08952F9217
:1017D0003F924F925F926F927F928F929F92AF92C1
:1017E000BF92CF92DF92EF92FF920F931F93CF930E
:1017F000DF93CDB7DEB7CA1BDB0B0FB6F894DEBFA5
:101800000FBECDBF09942A88398848885F846E84CA
:101810007D848C849B84AA84B984C884DF80EE8014
:10182000FD800C811B81AA81B981CE0FD11D0FB61D
:10183000F894DEBF0FBECDBFED0108950F930830C1
:1018400090F0982F872F762F652F542F432F322F0C
:1018500022270850F4CF220F331F441F551F661F45
:10186000771F881F991F0A95B2F70F91089597FB6C
:1018700010F8169400080F93083098F00850232FA2
:10188000342F452F562F672F782F892F902DF4CF87
:1018900005949795879577956795579547953795CB
:1018A00027950A95AAF70F9108952A0D3B1D4C1D07
:1018B0005D1D6E1D7F1D801F911F08952A193B0914
:1018C0004C095D096E097F09800B910B0895002476
:1018D000A7FD00942A1730054005500560057005E6
:1018E000800590050895AA1BBB1B51E107C0AA1FE4
:1018F000BB1FA617B70710F0A61BB70B881F991FB1
:101900005A95A9F780959095BC01CD010895A1E263
:101910001A2EAA1BBB1BFD010DC0AA1FBB1FEE1F69
:10192000FF1FA217B307E407F50720F0A21BB30BB4
:10193000E40BF50B661F771F881F991F1A9469F730
:1019400060957095809590959B01AC01BD01CF018C
:101950000895A29FB001B39FC001A39F700D811D88
:101960001124911DB29F700D811D1124911D0895A8
:04197000F894FFCF19
:10197400424D503A205245534554204F4E00424D5B
:10198400503A204E4F524D414C204D4F4445004259
:101994004D503A20434F4E46494700424D503A205D
:1019A400454E4420494E495400494E49542055411E
:1019B400525400494E49542041444300494E49542D
:1019C4002054574900494E495420424D5032383032
:1019D40000494E4954204D50553630353000313091
:1019E4006D732064656C61790050726573696F6E04
:1019F40020696E7465726E613A200054656D70657D
:101A040072617475726120313A2000416363205819
:101A14003A2000207C2041636320593A2000207C36
:101A240020416363205A3A20004779726F20583A64
:101A34002000207C204779726F20593A2000207CB6
:101A4400204779726F205A3A20004D50553A205061
:101A540072696D657220696E6974004D50553A2043
:101A6400536567756E646F20696E6974004D5055D7
:101A74003A2054657263657220696E6974004D5032
:101A8400553A2043756172746F20696E6974004D14
:101A940050553A205175696E746F20696E697400EF
:101AA4004D50553A20536578746F20696E697400FF
:00000001FF
