:100000000C9434000C9446000C9446000C9446006A
:100010000C9446000C9446000C9446000C94460048
:100020000C9446000C9446000C9446000C94460038
:100030000C9446000C9446000C9446000C94460028
:100040000C9446000C9446000C9446000C94460018
:100050000C9446000C9446000C9446000C94460008
:100060000C9446000C94460011241FBECFEFD8E03C
:10007000DEBFCDBF21E0A0E0B1E001C01D92A13004
:10008000B207E1F70E9460000C9488000C94000015
:1000900084B18B7F84B984B1806184B985B1846077
:1000A00085B98CB58F7D8CBD8CB58F7E8CBD8CB5A4
:1000B00080648CBD08950DB407FEFDCF8EB5089504
:1000C000F8940E94480078948FE39CE90197F1F737
:1000D00000C000000E945B0080930001813019F491
:1000E00081E48EBD0EC0823019F482E48EBD09C059
:1000F000833019F483E48EBD04C0843011F484E4A9
:100100008EBD8FE39CE90197F1F700C00000E2CFBC
:04011000F894FFCF91
:00000001FF
