:100000000C9434000C9446000C9446000C9446006A
:100010000C9446000C9446000C9446000C94460048
:100020000C9446000C9446000C9446000C94460038
:100030000C9446000C9446000C9446000C94460028
:100040000C9446000C9446000C9446000C94460018
:100050000C9446000C9446000C9446000C94460008
:100060000C9446000C94460011241FBECFEFD8E03C
:10007000DEBFCDBF21E0A0E0B1E001C01D92A13004
:10008000B207E1F70E9452000C945E000C9400004D
:100090008EBD0DB407FEFDCF08950DB407FEFDCF54
:1000A0008EB508952A9BFECF0E944D0080930001DB
:1000B0008B3BC1F78CEC0E944800F4CFF894FFCF43
:00000001FF
