S00D00005350495F532E7372656379
S11300000C9434000C9446000C9446000C94460066
S11300100C9446000C9446000C9446000C94460044
S11300200C9446000C9446000C9446000C94460034
S11300300C9446000C9446000C9446000C94460024
S11300400C9446000C9464000C9446000C944600F6
S11300500C9446000C9446000C9446000C94460004
S11300600C9446000C94460011241FBECFEFD8E038
S1130070DEBFCDBF21E0A0E0B1E001C01D92A230FF
S1130080B207E1F70E949E000C94C4000C94000097
S11300902398249A22982A9A8CB58F7D8CBD8CB58E
S11300A0877F8CBD8CB58B7F8CBD8CB58F7E8CBDD2
S11300B08CB580648CBD8CB580688CBD08958EBD74
S11300C00DB407FEFDCF08951F920F920FB60F9245
S11300D011242F933F934F935F936F937F938F9349
S11300E09F93AF93BF93EF93FF938EB580930101DA
S11300F091E090930001813059F488E40E945F00FC
S11301008FE40E945F008CE40E945F0081E403C0DE
S1130110823019F481EF0E945F00FF91EF91BF914B
S1130120AF919F918F917F916F915F914F913F918B
S11301302F910F900FBE0F901F901895F8940E9466
S1130140480078948FE39CE90197F1F700C0000020
S113015080910001811101C0FFCF809101018130A4
S113016059F488E40E945F008FE40E945F008CE4ED
S11301700E945F0081E403C0823019F481EF0E9481
S10F01805F0010920001E4CFF894FFCF60
S9030000FC
