:100000000C9434000C9446000C9446000C9446006A
:100010000C9446000C9446000C9446000C94460048
:100020000C9446000C9446000C9446000C94460038
:100030000C9446000C9446000C9446000C94460028
:100040000C9446000C946D000C9446000C944600F1
:100050000C9446000C9446000C9446000C94460008
:100060000C9446000C94460011241FBECFEFD8E03C
:10007000DEBFCDBF21E0A0E0B1E001C01D92A13004
:10008000B207E1F70E947E000C949F000C940000E0
:100090002398249A22982A9A8CB58F7D8CBD8CB592
:1000A000877F8CBD8CB58B7F8CBD8CB581608CBD02
:1000B0008CB58D7F8CBD8DB58E7F8DBD8CB58F7EC3
:1000C0008CBD8CB580688CBD8CB580648CBD08956A
:1000D0008EBD0DB407FEFDCF08951F920F920FB68F
:1000E0000F9211248F938EB5813011F4809300010B
:1000F0008F910F900FBE0F901F901895F8940E944B
:10010000480078948FE39CE90197F1F700C0000064
:1001100080910001813059F488E40E9468008FE4E6
:100120000E9468008CE40E94680081E403C0823071
:1001300079F781EF0E94680010920001E9CFF894EE
:02014000FFCFEF
:00000001FF
