S00D00005350495F532E7372656379
S11300000C9434000C9446000C9446000C94460066
S11300100C9446000C9446000C9446000C94460044
S11300200C9446000C9446000C9446000C94460034
S11300300C9446000C9446000C9446000C94460024
S11300400C9446000C9464000C9446000C944600F6
S11300500C9446000C9446000C9446000C94460004
S11300600C9446000C94460011241FBECFEFD8E038
S1130070DEBFCDBF21E0A0E0B1E001C01D92A13000
S1130080B207E1F70E949B000C94A6000C940000B8
S11300902398249A22982A9A8CB58F7D8CBD8CB58E
S11300A0877F8CBD8CB58B7F8CBD8CB58F7E8CBDD2
S11300B08CB580648CBD8CB580688CBD08958EBD74
S11300C00DB407FEFDCF08951F920F920FB60F9245
S11300D011242F933F934F935F936F937F938F9349
S11300E09F93AF93BF93EF93FF938EB580930001DB
S11300F0813059F482E40E945F008FE40E945F0023
S113010082E40E945F008FE403C0823019F481EF1F
S11301100E945F00FF91EF91BF91AF919F918F91EA
S11301207F916F915F914F913F912F910F900FBEEF
S11301300F901F901895F8940E94480078948FE3CC
S11301409CE90197F1F700C00000FFCFF894FFCFBE
S9030000FC
