S00D00005350495F532E7372656379
S11300000C9434000C9451000C9451000C94510045
S11300100C9451000C9451000C9451000C94510018
S11300200C9451000C9451000C9451000C94510008
S11300300C9451000C9451000C9451000C945100F8
S11300400C9451000C946F000C9451000C945100CA
S11300500C9451000C9451000C9451000C945100D8
S11300600C9451000C94510011241FBECFEFD8E022
S1130070DEBFCDBF11E0A0E0B1E0EEE0F2E002C0EF
S113008005900D92AE32B107D9F721E0AEE2B1E0AE
S113009001C01D92A133B207E1F70E949F000C94A6
S11300A005010C9400002398249A22982A9A8CB56E
S11300B08F7D8CBD8CB5877F8CBD8CB58B7F8CBDC3
S11300C08CB58F7E8CBD8CB580648CBD8CB58068FE
S11300D08CBD08958EBD0DB407FEFDCF08951F920B
S11300E00F920FB60F9211242F933F934F935F9368
S11300F06F937F938F939F93AF93BF93EF93FF93EC
S11301008EB58093300181E080932E0180E091E0F0
S11301100E94F9008AE090E00E94F200FF91EF91C2
S1130120BF91AF919F918F917F916F915F914F910B
S11301303F912F910F900FBE0F901F901895F89438
S11301400E94530078948FE39CE90197F1F700C073
S1130150000080912E018130F1F78BE091E00E9444
S1130160F9008AE090E00E94F20080913001813031
S113017089F588E191E00E94F9008AE090E00E940C
S1130180F20080912F0181110EC085E291E00E945E
S1130190F90088E490E00E94F2008AE090E00E9476
S11301A0F20088E403C0813049F48FE40E946A00BD
S11301B080912F018F5F80932F0111C0823011F441
S11301C08CE4F4CF833059F481E40E946A001092E5
S11301D02F0105C0823019F481EF0E946A00109249
S11301E02E01B7CF9091C00095FFFCCF8093C6003D
S11301F00895CF93DF93EC018991882319F00E942D
S1110200F200FACFDF91CF910895F894FFCF6A
S113020E496E74657272756D706500456E747261B7
S113021E206120666C616700456E747261206120F6
S111022E3078303100456E7669613A20000068
S9030000FC
