:100000000C948C000C94A9000C94A9000C94A900E9
:100010000C94A9000C94A9000C94A9000C94A900BC
:100020000C94A9000C94A9000C94A9000C94A900AC
:100030000C94A9000C94A9000C94A9000C94A9009C
:100040000C94A9000C94A9000C94A9000C94A9008C
:100050000C94A9000C94A9000C94A9000C94A9007C
:100060000C94A9000C94A900084AD73B3BCE016E22
:1000700084BCBFFDC12F3D6C74319ABD56833DDAFF
:100080003D00C77F11BED9E4BB4C3E916BAAAABE0E
:10009000000000803F07634236B79BD8A71A396833
:1000A0005618AEBAAB558C1D3CB7CC5763BD6DED41
:1000B000FD753EF6177231BF000000803F0800005A
:1000C00000BE922449123EABAAAA2ABECDCCCC4C8B
:1000D0003E00000080BEABAAAAAA3E00000000BFFE
:1000E000000000803F0000000000084178D3BB43BF
:1000F00087D1133D190E3CC3BD4282AD2B3E68EC47
:100100008276BED98FE1A93E4C80EFFFBE01C4FFCD
:100110007F3F00000000000011241FBECFEFD8E099
:10012000DEBFCDBF11E0A0E0B1E0E0EBF2E102C044
:1001300005900D92A832B107D9F721E0A8E2B1E00D
:1001400001C01D92A536B207E1F70E9479030C9415
:1001500056090C940000E9EBF0E080818E7F8083EB
:1001600080818D7F808380E28093B800E4E6F0E0B8
:1001700080818F778083089584EA8093BC00ECEBC4
:10018000F0E080818823ECF79091B900987F81E0BE
:10019000983009F480E0089584EA8093BC00ECEB89
:1001A000F0E080818823ECF79091B900987F81E09E
:1001B000903109F480E00895ECEBF0E080818469EF
:1001C00080830895880F662319F0816040E401C0A0
:1001D00048E18093BB0084E88093BC00ECEBF0E046
:1001E00080818823ECF72091B900287F30E050E02F
:1001F00081E02417350709F480E008958093BB005F
:1002000084E88093BC00ECEBF0E080818823ECF77D
:100210009091B900987F81E0983209F480E00895C8
:1002200020E4829FC001112484688093BC00ECEB21
:10023000F0E080818823ECF78091BB000895519A0B
:1002400050981092C00088E98093C10086E08093A6
:10025000C20087E690E09093C5008093C4000895A3
:10026000E0ECF0E0908195FFFDCF8093C60008950B
:10027000CF93DF93EC018881882331F021960E948F
:10028000300189918111FBCFDF91CF9108954F9279
:100290005F926F927F928F929F92AF92BF92CF9216
:1002A000DF92EF92FF921F93CF93DF93CDB7DEB72C
:1002B0002E970FB6F894DEBF0FBECDBF2B013C01C9
:1002C0000E942706AB01BC01CA01992354F4882778
:1002D0009927841B950B77FA709477F8709440E017
:1002E00001C041E08A3091050CF0B4C020E030E05C
:1002F00010E00FC08A30910564F01F5FB7010E94C3
:100300002E098193862F972F2F5F3F4F1B3091F738
:10031000B3C0009729F01F5FFE01E20FF31F818336
:10032000411103C08DE20E943001111108C01982F1
:100330006894AA24A1F8B12C81E090E00BC0812F31
:1003400090E05C012FEFA21AB20AE2E0AE16B1040F
:100350000CF441C04C01EE24E394F12CEC0EFD1E94
:10036000E80EF91ECC24C394D12CF70112917F0121
:1003700080E3810F0E943001B4016C197D09072EC2
:10038000000C880B990B0E945F069B01AC0160E09A
:1003900070E080E291E40E9487076B877C878D87FD
:1003A0009E87612F70E080E090E00E945F062B85C1
:1003B0003C854D855E850E941A079B01AC01C301F7
:1003C000B2010E9419052B013C01FFEFCF1ADF0A91
:1003D000CA14DB0454F28EE20E94300120E030E0C7
:1003E00040E251E4C301B2010E941A076B017C0193
:1003F00020E030E040E452E40E941A050E942E06FC
:10040000862F0E943001C701B6010E942706062EE2
:10041000000C770B880B990B0E945F069B01AC01C7
:10042000C701B6010E94190520E030E040E251E426
:100430000E941A0720E030E040E452E40E941A05CE
:100440000E942E06862F0E94300180E091E00E94DB
:10045000380115C06AE070E00E942E098983862F5A
:10046000972FFE01329621E030E011E00F2EFAE0E6
:10047000EF2EF12CF02D3ECF411161CF53CF2E96B0
:100480000FB6F894DEBF0FBECDBFDF91CF911F91A5
:10049000FF90EF90DF90CF90BF90AF909F908F90A4
:1004A0007F906F905F904F9008951F93CF93DF934D
:1004B000182FD62FC42F0E94BC008111FCCF60E002
:1004C000812F0E94E2008111FACF8D2F0E94FE0041
:1004D0008111FBCF8C2F0E94FE008111FBCF0E9467
:1004E000DC00DF91CF911F9108951F93CF93DF938D
:1004F000C82F162F0E94BC008111FCCFDC2F60E0BA
:100500008C2F0E94E2008111F9CF812F0E94FE0002
:100510008111FBCF0E94CC008111FCCF61E08D2FB7
:100520000E94E2008111FACF0E94100180932C01F9
:100530000E94DC0080912C01DF91CF911F910895E2
:10054000CF93DF93EC0140E06BE670E00E94550230
:1005500041E06AE170E0CE010E94550240E06BE1AB
:1005600070E0CE010E94550240E06CE170E0CE01E7
:100570000E94550240E068E370E0CE010E945502FF
:1005800047E068E670E0CE010E945502DF91CF910E
:100590000895CF93DF936BE370E088E690E00E94CC
:1005A0007502CDE2D1E088836CE370E088E690E0EC
:1005B0000E9475028983288190E0922B90935C01C0
:1005C00080935B016DE370E088E690E00E94750225
:1005D0008A836EE370E088E690E00E9475028B8368
:1005E0002A8190E0922B90934801809347016FE31A
:1005F00070E088E690E00E9475028C8360E470E011
:1006000088E690E00E9475028D832C8190E0922B09
:100610009093560180935501DF91CF910895CF9328
:10062000DF9363E470E088E690E00E947502CDE21B
:10063000D1E08E8364E470E088E690E00E94750269
:100640008F832E8190E0922B9093460180934501F9
:1006500065E470E088E690E00E947502888766E4B1
:1006600070E088E690E00E9475028987288590E016
:10067000922B909358018093570167E470E088E6CD
:1006800090E00E9475028A8768E470E088E690E056
:100690000E9475028B872A8590E0922B90935A01D5
:1006A00080935901DF91CF910895E4E6F0E08081D5
:1006B000877F808310928000E1E8F0E085E080830E
:1006C0008081806480831092850010928400089558
:1006D000E4E8F0E0608171811182108280E090E0B6
:1006E0000E945D062DEB37E346E858E30E941A07A7
:1006F0000895CF93DF9300D000D0CDB7DEB7F89444
:100700000E94AB000E941F010E94550388E690E002
:100710000E94A0027894259A8FE39CE90197F1F753
:1007200000C000000F2EFDE52F2EF1E03F2EF02D32
:1007300009E411E00E94C9020E940F0360915B016D
:1007400070915C01072E000C880B990B0E945F06CC
:1007500020E030E040E858E30E941A074B015C01BA
:100760006091470170914801072E000C880B990B8E
:100770000E945F0620E030E040E858E30E941A073C
:100780006B017C016091550170915601072E000CA0
:10079000880B990B0E945F0620E030E040E858E3A8
:1007A0000E941A079B01AC010E941A072B013C0111
:1007B000A7019601C701B6010E941A0769837A83CF
:1007C0008B839C83A301920169817A818B819C81B7
:1007D0000E941A050E94DD079B01AC01C501B4010E
:1007E00090580E94B5050E94860521EE3EE245E63E
:1007F00052E40E941A07F10164837583868397830C
:10080000A5019401C501B4010E941A07A301920138
:100810000E941A050E94DD079B01AC01C701B601C9
:100820000E94B5050E94860521EE3EE245E652E4AF
:100830000E941A07F1016083718382839383609120
:10084000450170914601072E000C880B990B0E9400
:100850005F0620E030E043E053E40E94B505F80174
:1008600060837183828393836091570170915801F3
:10087000072E000C880B990B0E945F0620E030E0E9
:1008800043E053E40E94B505F801648375838683D1
:1008900097836091590170915A01072E000C880BC3
:1008A000990B0E945F0620E030E043E053E40E9491
:1008B000B505F80160877187828793870E94680376
:1008C0006B017C01609328017093290180932A01B8
:1008D00090932B01F80120813181428153810E9444
:1008E0001A07E9E3F1E020813181428153810E94BE
:1008F0001A0528E431EE4AE75FE30E941A074B012C
:100900005C012AE037ED43EA5CE3F101608171812B
:10091000828193810E941A079B01AC01C501B40139
:100920000E941A05E9E3F1E0608371838283938377
:10093000F8012481358146815781C701B6010E94A3
:100940001A0720913D0130913E0140913F015091A5
:1009500040010E941A0528E431EE4AE75FE30E9455
:100960001A074B015C012AE037ED43EA5CE3F10131
:1009700064817581868197810E941A079B01AC0171
:10098000C501B4010E941A0560933D0170933E01B8
:1009900080933F0190934001F80120853185428585
:1009A0005385C701B6010E941A0720914101309179
:1009B000420140914301509144010E941A05609305
:1009C000410170934201809343019093440183E07D
:1009D00091E00E943801E9E3F1E060817181828158
:1009E00093810E9447018FE091E00E94380160915D
:1009F0003D0170913E0180913F01909140010E9424
:100A000047018BE191E00E943801609141017091B2
:100A1000420180914301909144010E944701FFEF00
:100A200029EF80E0F15020408040E1F700C0000055
:100A300081CE5058BB27AA270E9431050C94D806B6
:100A40000E94CA0638F00E94D10620F039F49F3F78
:100A500019F426F40C94A0060EF4E095E7FB0C9430
:100A60009A06E92F0E94E90658F3BA17620773073E
:100A70008407950720F079F4A6F50C940B070EF483
:100A8000E0950B2EBA2FA02D0B01B90190010C019E
:100A9000CA01A0011124FF27591B99F0593F50F4B6
:100AA000503E68F11A16F040A22F232F342F44270E
:100AB000585FF3CF469537952795A795F040539506
:100AC000C9F77EF41F16BA0B620B730B840BBAF0D6
:100AD0009150A1F0FF0FBB1F661F771F881FC2F741
:100AE0000EC0BA0F621F731F841F48F48795779555
:100AF0006795B795F7959E3F08F0B0CF9395880F0F
:100B000008F09927EE0F979587950895DF93DD27D5
:100B1000B92FBF7740E85FE31616170648075B0753
:100B200018F4D92F0E9412079F938F937F936F938E
:100B30000E941D08E8E6F0E00E94A3060E94D80685
:100B40002F913F914F915F910E942D07DD2351F02E
:100B50009058A2EA2AED3FE049EC5FE3D0785D27A8
:100B60000E943105DF910C94D8060E94C9050C94AF
:100B7000D8060E94D10658F00E94CA0640F029F417
:100B80005F3F29F00C949A0651110C940C070C94B9
:100B9000A0060E94E90668F39923B1F3552391F367
:100BA000951B550BBB27AA2762177307840738F0DC
:100BB0009F5F5F4F220F331F441FAA1FA9F335D039
:100BC0000E2E3AF0E0E832D091505040E695001CED
:100BD000CAF72BD0FE2F29D0660F771F881FBB1FA7
:100BE000261737074807AB07B0E809F0BB0B802D85
:100BF000BF01FF2793585F4F3AF09E3F510578F0B1
:100C00000C949A060C940C075F3FE4F3983ED4F3DF
:100C1000869577956795B795F7959F5FC9F7880F84
:100C2000911D9695879597F90895E1E0660F771FD6
:100C3000881FBB1F621773078407BA0720F0621B67
:100C4000730B840BBA0BEE1F88F7E09508950E9492
:100C50002E066894B1110C940C0708950E94F106B9
:100C600088F09F5798F0B92F9927B751B0F0E1F06D
:100C7000660F771F881F991F1AF0BA95C9F714C01D
:100C8000B13091F00E940B07B1E008950C940B076E
:100C9000672F782F8827B85F39F0B93FCCF3869556
:100CA00077956795B395D9F73EF4909580957095B3
:100CB00061957F4F8F4F9F4F0895E89409C097FB30
:100CC0003EF490958095709561957F4F8F4F9F4F23
:100CD0009923A9F0F92F96E9BB279395F695879567
:100CE00077956795B795F111F8CFFAF4BB0F11F42A
:100CF00060FF1BC06F5F7F4F8F4F9F4F16C08823D1
:100D000011F096E911C0772321F09EE8872F762F06
:100D100005C0662371F096E8862F70E060E02AF047
:100D20009A95660F771F881FDAF7880F9695879533
:100D300097F9089597F99F6780E870E060E008955B
:100D40009FEF80EC0895DF93CF931F930F93FF9253
:100D5000EF92DF927B018C01689406C0DA2EEF01DE
:100D60000E942D07FE01E894A591259135914591AA
:100D70005591A6F3EF010E943105FE019701A801EC
:100D8000DA9469F7DF90EF90FF900F911F91CF9168
:100D9000DF91089500240A9416161706180609060E
:100DA000089500240A9412161306140605060895E1
:100DB000092E0394000C11F4882352F0BB0F40F469
:100DC000BF2B11F460FF04C06F5F7F4F8F4F9F4FA9
:100DD000089557FD9058440F551F59F05F3F71F02B
:100DE0004795880F97FB991F61F09F3F79F0879592
:100DF0000895121613061406551FF2CF4695F1DF1B
:100E000008C0161617061806991FF1CF86957105AA
:100E1000610508940895E894BB2766277727CB01DE
:100E200097F908959B01AC0160E070E080E89FE3D2
:100E30000C94B5050E942D070C94D8060E94CA0692
:100E400038F00E94D10620F0952311F00C949A06F8
:100E50000C94A00611240C940C070E94E90670F370
:100E6000959FC1F3950F50E0551F629FF001729F4F
:100E7000BB27F00DB11D639FAA27F00DB11DAA1F5E
:100E8000649F6627B00DA11D661F829F2227B00DAB
:100E9000A11D621F739FB00DA11D621F839FA00D36
:100EA000611D221F749F3327A00D611D231F849F86
:100EB000600D211D822F762F6A2F11249F575040DD
:100EC0009AF0F1F088234AF0EE0FFF1FBB1F661F58
:100ED000771F881F91505040A9F79E3F510580F021
:100EE0000C949A060C940C075F3FE4F3983ED4F3FD
:100EF000869577956795B795F795E7959F5FC1F7C5
:100F0000FE2B880F911D9695879597F90895FA0104
:100F1000EE0FFF1F309621053105A1F16115710516
:100F200061F48038BFE39B0749F1689490388105EC
:100F300061F08038BFEF9B0741F099234AF5FF3FEE
:100F4000E1053105210519F1E8940894E795D901E7
:100F5000AA2329F4AB2FBE2FF85FD0F310C0FF5F98
:100F600070F4A695E0F7F73950F019F0FF3A38F42D
:100F70009F779F930DD00F9007FC9058089546F0EF
:100F80000C94A00660E070E080E89FE308954FE7CE
:100F90009F775F934F933F932F930E94B2082F91B7
:100FA0003F914F915F910E941A070C94290819F400
:100FB00016F40C94A0060C945B080E94F106B8F39A
:100FC0009923C9F3B6F39F57550B87FF0E94690811
:100FD0000024A0E640EA900180585695979528F4A1
:100FE000805C660F771F881F20F026173707480799
:100FF00030F4621B730B840B202931294A2BA695F0
:1010000017940794202531254A2758F7660F771F34
:10101000881F20F026173707480730F4620B730B40
:10102000840B200D311D411DA09581F7B901842F3E
:101030009158880F9695879508959B01AC010C9463
:101040001A0729F416F00C949A060C940B070C94CA
:10105000A0060E94F106A8F39638A0F707F80F92B1
:10106000E8942BE33AEA48EB5FE70E9430070F92DF
:101070000F920F924DB75EB70F920E94FA08E5E902
:10108000F0E00E94A3064F915F91EF91FF91E595EB
:10109000EE1FFF1F49F0FE57E0684427EE0F441F84
:1010A000FA95E1F74195550B0E9474080F9007FEE1
:1010B0000C94120708959F3F31F0915020F48795CA
:1010C00077956795B795880F911D9695879597F9B0
:1010D000089591505040660F771F881FD2F70895EA
:1010E0000C949A060C945B080E94F106D8F399239D
:1010F000C9F3940F511DA3F39150504094F059F04F
:10110000882332F0660F771F881F91505040C1F737
:101110009E3F51052CF7880F911D9695879597F95D
:1011200008955F3FACF0983E9CF0BB27869577957D
:101130006795B79508F4B1609395C1F7BB0F58F761
:1011400011F460FFE8CF6F5F7F4F8F4F9F4FE3CF6A
:101150000C940C0716F00C945B080C94A006689491
:101160000C949A060E94F106A8F39923C1F3AEF3FA
:10117000DF93CF931F930F93FF92C92FDD2788230F
:101180002AF02197660F771F881FDAF720E030E0FA
:1011900040E85FEB9FE3883920F0803E38F02196ED
:1011A0008F770E941A05EDEBF0E004C00E941A054B
:1011B000EAEEF0E00E94A3068B01BE01EC01FB2EDB
:1011C0006F5771097595771F880B990B0E945F0601
:1011D00028E132E741E35FE30E942D07AF2D98013C
:1011E000AE01FF900F911F91CF91DF910E943105C9
:1011F0000C94D806FA01DC01AA0FBB1F9B01AC01BD
:10120000BF5728F4222733274427507820C0B751EE
:1012100090F4AB2F0024469537952795011CA39594
:10122000D2F3002071F0220F331F441FB395DAF37D
:101230000ED00C94190561307105A0E88A07B946F3
:1012400030F49B01AC016627772788279078309689
:1012500021F02083318342835383089597FB072E27
:1012600016F4009407D077FD09D00E94420907FCCC
:1012700005D03EF4909581959F4F089570956195A6
:101280007F4F0895AA1BBB1B51E107C0AA1FBB1FBC
:10129000A617B70710F0A61BB70B881F991F5A9502
:1012A000A9F780959095BC01CD010895F894FFCFE2
:1012B0000A0D000A0D416E676C6520313A20000A64
:1012C0000D416E676C6520323A20000A0D416E6751
:0812D0006C6520333A20000098
:00000001FF
