S00B00005457492E7372656325
S11300000C9475000C9492000C9492000C94920041
S11300100C9492000C9492000C9492000C94920014
S11300200C9492000C9492000C9492000C94920004
S11300300C9492000C9492000C9492000C949200F4
S11300400C9492000C9492000C9492000C949200E4
S11300500C9492000C9492000C9492000C949200D4
S11300600C9492000C94920007634236B79BD8A775
S11300701A39685618AEBAAB558C1D3CB7CC5763C9
S1130080BD6DEDFD753EF6177231BF000000803F77
S113009008000000BE922449123EABAAAA2ABECD93
S11300A0CCCC4C3E00000080BEABAAAAAA3E000005
S11300B00000BF000000803F0000000000084178FD
S11300C0D3BB4387D1133D190E3CC3BD4282AD2B34
S11300D03E68EC8276BED98FE1A93E4C80EFFFBE2C
S11300E001C4FF7F3F000000000011241FBECFEFBA
S11300F0D8E0DEBFCDBF11E0A0E0B1E0EAE4F9E171
S113010002C005900D92A430B107D9F721E0A4E014
S1130110B1E001C01D92A237B207E1F70E94790352
S11301200C94A30C0C940000E9EBF0E080818E7F2A
S1130130808380818D7F808380E28093B800E4E6B1
S1130140F0E080818F778083089584EA8093BC00F7
S1130150ECEBF0E080818823ECF79091B900987F74
S113016081E0983009F480E0089584EA8093BC002B
S1130170ECEBF0E080818823ECF79091B900987F54
S113018081E0903109F480E00895ECEBF0E08081A7
S1130190846980830895880F662319F0816040E4A0
S11301A001C048E18093BB0084E88093BC00ECEB81
S11301B0F0E080818823ECF72091B900287F30E0BB
S11301C050E081E02417350709F480E00895809316
S11301D0BB0084E88093BC00ECEBF0E080818823D2
S11301E0ECF79091B900987F81E0983209F480E0AF
S11301F0089520E4829FC001112484688093BC0088
S1130200ECEBF0E080818823ECF78091BB0008954B
S1130210519A50981092C00088E98093C10086E0FA
S11302208093C20087E690E09093C5008093C40059
S11302300895E0ECF0E0908195FFFDCF8093C60037
S11302400895CF93DF93EC018881882331F02196C0
S11302500E94190189918111FBCFDF91CF910895FB
S11302604F925F926F927F928F929F92AF92BF92C2
S1130270CF92DF92EF92FF921F93CF93DF93CDB78C
S1130280DEB72E970FB6F894DEBF0FBECDBF2B019D
S11302903C010E94BA07AB01BC01CA01992354F482
S11302A088279927841B950B77FA709477F87094B4
S11302B040E001C041E08A3091050CF0B4C020E078
S11302C030E010E00FC08A30910564F01F5FB70181
S11302D00E94D40A8193862F972F2F5F3F4F1B30A4
S11302E091F7B3C0009729F01F5FFE01E20FF31FDF
S11302F08183411103C08DE20E941901111108C0CC
S113030019826894AA24A1F8B12C81E090E00BC072
S1130310812F90E05C012FEFA21AB20AE2E0AE1640
S1130320B1040CF441C04C01EE24E394F12CEC0E26
S1130330FD1EE80EF91ECC24C394D12CF7011291B2
S11303407F0180E3810F0E941901B4016C197D09BA
S1130350072E000C880B990B0E94F8079B01AC0137
S113036060E070E080E291E40E943F096B877C8743
S11303708D879E87612F70E080E090E00E94F807EF
S11303802B853C854D855E850E94D2089B01AC017E
S1130390C301B2010E94DB062B013C01FFEFCF1A1F
S11303A0DF0ACA14DB0454F28EE20E94190120E031
S11303B030E040E251E4C301B2010E94D2086B0173
S11303C07C0120E030E040E452E40E94DC060E941C
S11303D0C107862F0E941901C701B6010E94BA07FE
S11303E0062E000C770B880B990B0E94F8079B01D3
S11303F0AC01C701B6010E94DB0620E030E040E218
S113040051E40E94D20820E030E040E452E40E942B
S1130410DC060E94C107862F0E94190180E091E04A
S11304200E94210115C06AE070E00E94D40A898309
S1130430862F972FFE01329621E030E011E00F2E37
S1130440FAE0EF2EF12CF02D3ECF411161CF53CFC6
S11304502E960FB6F894DEBF0FBECDBFDF91CF91BD
S11304601F91FF90EF90DF90CF90BF90AF909F903F
S11304708F907F906F905F904F9008951F93CF93CC
S1130480DF93182FD62FC42F0E94A5008111FCCF13
S113049060E0812F0E94CB008111FACF8D2F0E9442
S11304A0E7008111FBCF8C2F0E94E7008111FBCF65
S11304B00E94C500DF91CF911F9108951F93CF93A0
S11304C0DF93C82F162F0E94A5008111FCCFDC2FCB
S11304D060E08C2F0E94CB008111F9CF812F0E9404
S11304E0E7008111FBCF0E94B5008111FCCF61E0D0
S11304F08D2F0E94CB008111FACF0E94F9008093C6
S113050004010E94C50080910401DF91CF911F91E5
S11305100895CF93DF93EC0146EB60EE70E00E9408
S11305203E0247E564EF70E0CE010E943E0240E1E6
S113053065EF70E0CE010E943E02259ADF91CF91D3
S11305400895CF93DF936AEF70E086E790E00E940E
S11305505E02C3E4D1E088836BEF70E086E790E04D
S11305600E945E0289836CEF70E086E790E00E944F
S11305705E02282F8A8338816981862F90E0A0E06B
S1130580B0E0BA2FA92F982F8827A32BBC01CD0147
S1130590622BDF91CF910895CF93DF9367EF70E0E3
S11305A086E790E00E945E02C3E4D1E0888368EFAE
S11305B070E086E790E00E945E02898369EF70E054
S11305C086E790E00E945E02282F8A833881698141
S11305D0862F90E0A0E0B0E0BA2FA92F982F8827AB
S11305E0A32BBC01CD01622BDF91CF9108950F9312
S11305F01F93CF93DF93EC01BC0186E790E00E9448
S11306005E0207E011E0F8018083BE016F5F7F4F57
S113061086E790E00E945E02F801818390E0982FC3
S113062088272081822BDF91CF911F910F9108950C
S113063088E890E00E94F70290935301809352015E
S11306408AE890E00E94F7029093060180930501E6
S11306508CE890E00E94F70290934201809341015C
S11306608EE890E00E94F70290931801809317019E
S113067080E990E00E94F702909322018093210187
S113068082E990E00E94F70290935501809354010F
S113069084E990E00E94F70290934F0180934E0109
S11306A086E990E00E94F70290936D0180936C01BB
S11306B088E990E00E94F7029093200180931F0143
S11306C08AE990E00E94F70290936B0180936A019B
S11306D08CE990E00E94F70290931A01809319012B
S11306E08EE990E00E94F7029093510180935001AB
S11306F008952F923F924F925F926F927F928F92C2
S11307009F92AF92BF92CF92DF92EF92FF920F939C
S11307101F93CF93DF93CDB7DEB768970FB6F894E6
S1130720DEBF0FBECDBFF8940E9494000E94080162
S113073086E790E00E94890278948FE39CE9019710
S1130740F1F700C000009FEFA3ECB9E09150A04086
S1130750B040E1F700C000000E9418030E94A1020B
S11307606B017C01DC01CB01689413F8B595A79566
S1130770979587951694D1F780931B0190931C014C
S1130780A0931D01B0931E0140905201509053015B
S1130790612C712CB701A601689416F875956795BC
S11307A0579547951694D1F7D301C201880F991F25
S11307B0AA1FBB1F9A01AB01281B390B4A0B5B0B09
S11307C0A0910501B09106010E94F30A4B015C015E
S11307D0072E7BE0B594A794979487947A95D1F7E4
S11307E0702DE3E2F1E080829182A282B382DC0187
S11307F0CB01BB0F880B982FDC01809327018093DA
S113080028018093290180932A01BB27F7FCBA951C
S1130810AF2D9E2D8D2DBC01CD016419750986095E
S113082097099B01AC010E94C40A9B01AC01012EF3
S11308301CE055954795379527951A95D1F7102DB6
S1130840A0914101B09142010E94F30A8B019C01E5
S11308500F2EFEE03595279517950795FA95D1F754
S1130860F02DA6E5B1E00D931D932D933C931397C2
S1130870AB01BC01770F440B542FBA0140935A01CA
S113088040935B0140935C0140935D01D501C40139
S1130890800F911FA21FB31F80936E0190936F016D
S11308A0A0937001B0937101AC01BD01440F551FB9
S11308B0661F771F440F551F661F771F840F951FF0
S11308C0A61FB71F80589F4FAF4FBF4F692F7A2F76
S11308D08B2F992787FD9A950E94F80720E030E036
S11308E048EC52E40E9448070E9430010E94CC0266
S11308F09B01AC01689413F8559547953795279556
S11309001694D1F72F87388B498B5A8B20934A0141
S113091030934B0140934C0150934D0180916E01F3
S113092090916F01A0917001B09171016C017D01F2
S1130930FF0CCC08DC2C7601282F392F4A2F5B2F93
S11309406C2D7C2D8C2D9C2D345F41405109610907
S1130950710981099109288F3F8B49835A83262E77
S1130960372E482E592EA22EB32EC42ED52EE62E67
S1130970F72E082F192F0E94FB0A2B833C834D83EB
S11309805E836F83788789879A8730916D01209180
S11309906C01932F990F990B492F592F692F792F98
S11309A0892F0E94FB0A01E10E942B0C2B873C87B4
S11309B04D875E87662E772E882E992E30912001E2
S11309C020911F01932F990F990BAB80BC80CD8090
S11309D0DE80EF80F88409851A85492F592F692F05
S11309E0792F892F0E94FB0AA22EB32EC42ED52E56
S11309F0E62EF72E082F192F2B853C854D855E8515
S1130A00662D772D882D992D0E94620C622E732EEF
S1130A10842E952EB62FA72FF82FE92F30914F0152
S1130A2020914E01932F990F990B492F592F692F1C
S1130A30792F892F03E20E942B0CA22EB32EC42EF1
S1130A40D52EE62EF72E082F192F262D372D482DBB
S1130A50592D6B2F7A2F8F2F9E2F0E94620C2B877C
S1130A603C874D875E876B8B7C8B8D8B9E8B209315
S1130A7056013093570140935801509359016093A4
S1130A805A0170935B0180935C0190935D013091F6
S1130A90550120915401932F990F990BAB80BC8081
S1130AA0CD80DE80EF80F88409851A85492F592F7F
S1130AB0692F792F892F0E94FB0A08E00E94440CB9
S1130AC02B833C834D835E83662E772E882E992E4E
S1130AD03091220120912101932F990F990BA88C19
S1130AE0BF88C980DA80E22CF32C042D152D492F00
S1130AF0592F692F792F892F0E94FB0A0CE00E943D
S1130B002B0CA22EB32EC42ED52EE62EF72E082F94
S1130B10192F2B813C814D815E81662D772D882D87
S1130B20992D0E94620C70588F4F9F4FA09017010F
S1130B30B09018011501B32CC12CD12CE12CF12C4F
S1130B4000E010E00E94FB0A01E20E94440C422EE5
S1130B50532E642E752E862E972E8A839983209386
S1130B60230130932401409325015093260160937F
S1130B702701709328018093290190932A01A0E012
S1130B800E94740C09F4FCC080E090E0A0E1B0E0A5
S1130B902F85388949895A89821B930BA40BB50B7D
S1130BA06C017D01FF0CCC08DC2C7601282F392F39
S1130BB04A2F5B2F6C2D7C2D8C2D9C2D0FE10E94D8
S1130BC02B0CAB84BC84CD84DE84EB88FC880D893B
S1130BD01E890E946B0C0F2EF5E3AF2EF02D0F2E05
S1130BE0FCE0BF2EF02DC12CD12CE12CF12C00E027
S1130BF010E00E94FB0AA42CB52CC62CD72CE82CA0
S1130C00F92C0A8119810E94560B2B87232E4983C4
S1130C105A836B837C838D839E830DE00E94440CF6
S1130C20322E432E542E652E762E872E982E9F8399
S1130C303091510120915001932F990F990BA32CBE
S1130C40B42CC52CD62CE72CF82C092D1F81492F48
S1130C50592F692F792F892F0E94FB0A0E94FB0AC2
S1130C6009E10E94440C622E532E442E352E6F83CC
S1130C70788789879A8720932301309324014093AE
S1130C8025015093260160932701709328018093D6
S1130C90290190932A0130911A0120911901932F6F
S1130CA0990F990BAB84B22CC980DA80EB80FC805D
S1130CB00D811E81492F592F692F792F892F0E9469
S1130CC0FB0A03E10E94440C722E832E942E5C874F
S1130CD0B62FA72FF82FE92F2093560130935701F1
S1130CE0409358015093590160935A0170935B01EA
S1130CF080935C0190935D012A2D322D4C2D5D2D46
S1130D006E2D7F2D8D81912FA62CB52CC42CD32C28
S1130D10EF80F88409851A850E94620CA72CB82CF0
S1130D20C92CDC84EB2EFA2E0F2F1E2F0E94620C8E
S1130D3008E00E94440CA22EB32EC42ED52EE62E1B
S1130D40F72EE82F192F30916B0120916A01932F10
S1130D50990F990B492F592F692F792F892F04E067
S1130D600E942B0C0E2F0E94620C0E94F00720E0C0
S1130D7030E048EC56E40E9448070E943001E3CC7E
S1130D8080E090E068960FB6F894DEBF0FBECDBF4A
S1130D90DF91CF911F910F91FF90EF90DF90CF9053
S1130DA0BF90AF909F908F907F906F905F904F9087
S1130DB03F902F9008955058BB27AA270E94F3060E
S1130DC00C9498080E948A0838F00E94910820F038
S1130DD039F49F3F19F426F40C9477080EF4E09547
S1130DE0E7FB0C947108E92F0E94A90858F3BA177D
S1130DF0620773078407950720F079F4A6F50C942D
S1130E00CB080EF4E0950B2EBA2FA02D0B01B901DF
S1130E1090010C01CA01A0011124FF27591B99F06C
S1130E20593F50F4503E68F11A16F040A22F232F78
S1130E30342F4427585FF3CF469537952795A795C8
S1130E40F0405395C9F77EF41F16BA0B620B730B6F
S1130E50840BBAF09150A1F0FF0FBB1F661F771FE0
S1130E60881FC2F70EC0BA0F621F731F841F48F495
S1130E70879577956795B795F7959E3F08F0B0CF1E
S1130E809395880F08F09927EE0F97958795089505
S1130E900E945C070C9498080E94910858F00E94E4
S1130EA08A0840F029F45F3F29F00C94710851112D
S1130EB00C94CC080C9477080E94A90868F3992331
S1130EC0B1F3552391F3951B550BBB27AA27621742
S1130ED07307840738F09F5F5F4F220F331F441F4F
S1130EE0AA1FA9F335D00E2E3AF0E0E832D0915083
S1130EF05040E695001CCAF72BD0FE2F29D0660F70
S1130F00771F881FBB1F261737074807AB07B0E8B2
S1130F1009F0BB0B802DBF01FF2793585F4F3AF0B8
S1130F209E3F510578F00C9471080C94CC085F3FF7
S1130F30E4F3983ED4F3869577956795B795F7953E
S1130F409F5FC9F7880F911D9695879597F9089526
S1130F50E1E0660F771F881FBB1F621773078407C2
S1130F60BA0720F0621B730B840BBA0BEE1F88F7D1
S1130F70E09508950E94C1076894B1110C94CC08BF
S1130F8008950E94B10888F09F5798F0B92F9927C7
S1130F90B751B0F0E1F0660F771F881F991F1AF060
S1130FA0BA95C9F714C0B13091F00E94CB08B1E0F2
S1130FB008950C94CB08672F782F8827B85F39F0F1
S1130FC0B93FCCF3869577956795B395D9F73EF4F9
S1130FD090958095709561957F4F8F4F9F4F0895A1
S1130FE097FB16F40E947A080C943408E89409C01C
S1130FF097FB3EF490958095709561957F4F8F4F48
S11310009F4F9923A9F0F92F96E9BB279395F6955D
S1131010879577956795B795F111F8CFFAF4BB0FDB
S113102011F460FF1BC06F5F7F4F8F4F9F4F16C03F
S1131030882311F096E911C0772321F09EE8872FC9
S1131040762F05C0662371F096E8862F70E060E085
S11310502AF09A95660F771F881FDAF7880F9695FE
S1131060879597F90895E894F92F96EBFF2381F07B
S1131070121613061406440B9395F69587957795E7
S1131080679557954040FF23B9F71BC099270895EA
S1131090882351F49850D2F7872B762F652F542F3D
S11310A0432F322F20E0B1F3121613061406440B1B
S11310B088233AF09A95440F551F661F771F881F9F
S11310C0CAF755234AF4440F551F11F460FF04C0B6
S11310D06F5F7F4F8F4F9F4F880F9695879597F936
S11310E0089597F99F6780E870E060E008959FEFA6
S11310F080EC0895909580957095609550954095F5
S1131100309521953F4F4F4F5F4F6F4F7F4F8F4F1C
S11311109F4F089500240A94161617061806090608
S1131120089500240A941216130614060506089559
S1131130092E0394000C11F4882352F0BB0F40F4E1
S1131140BF2B11F460FF04C06F5F7F4F8F4F9F4F21
S1131150089557FD9058440F551F59F05F3F71F0A3
S11311604795880F97FB991F61F09F3F79F087950A
S11311700895121613061406551FF2CF4695F1DF93
S113118008C0161617061806991FF1CF8695710523
S1131190610508940895E894BB2766277727CB0157
S11311A097F908950E94E5080C9498080E948A080B
S11311B038F00E94910820F0952311F00C947108E6
S11311C00C94770811240C94CC080E94A90870F39D
S11311D0959FC1F3950F50E0551F629FF001729FD8
S11311E0BB27F00DB11D639FAA27F00DB11DAA1FE7
S11311F0649F6627B00DA11D661F829F2227B00D34
S1131200A11D621F739FB00DA11D621F839FA00DBE
S1131210611D221F749F3327A00D611D231F849F0E
S1131220600D211D822F762F6A2F11249F57504065
S11312309AF0F1F088234AF0EE0FFF1FBB1F661FE0
S1131240771F881F91505040A9F79E3F510580F0A9
S11312500C9471080C94CC085F3FE4F3983ED4F3EB
S1131260869577956795B795F795E7959F5FC1F74D
S1131270FE2B880F911D9695879597F90895FA018D
S1131280EE0FFF1F309621053105A1F1611571059F
S113129061F48038BFE39B0749F168949038810575
S11312A061F08038BFEF9B0741F099234AF5FF3F77
S11312B0E1053105210519F1E8940894E795D90170
S11312C0AA2329F4AB2FBE2FF85FD0F310C0FF5F21
S11312D070F4A695E0F7F73950F019F0FF3A38F4B6
S11312E09F779F930DD00F9007FC9058089546F078
S11312F00C94770860E070E080E89FE308954FE77E
S11313009F775F934F933F932F930E943A0A2F91B5
S11313103F914F915F910E94D2080C94970929F450
S113132016F00C9471080C94CB080C9477080E9466
S1131330B108A8F39638A0F707F80F92E8942BE3C6
S11313403AEA48EB5FE70E94E8080F920F920F9287
S11313504DB75EB70F920E94820AE8E6F0E00E9461
S1131360C9094F915F91EF91FF91E595EE1FFF1F22
S113137049F0FE57E0684427EE0F441FFA95E1F761
S11313804195550B0E94FC090F9007FE0C94F0093F
S11313900895DF93CF931F930F93FF92EF92DF9201
S11313A07B018C01689406C0DA2EEF010E94E508E7
S11313B0FE01E894A5912591359145915591A6F3A7
S11313C0EF010E94F306FE019701A801DA9469F780
S11313D0DF90EF90FF900F911F91CF91DF910895CF
S11313E09B01AC0160E070E080E89FE30C94480747
S11313F00C9471080C94B60A0E94B108D8F399238E
S1131400C9F3940F511DA3F39150504094F059F037
S1131410882332F0660F771F881F91505040C1F720
S11314209E3F51052CF7880F911D9695879597F946
S113143008955F3FACF0983E9CF0BB278695779566
S11314406795B79508F4B1609395C1F7BB0F58F74A
S113145011F460FFE8CF6F5F7F4F8F4F9F4FE3CF53
S11314600C94CC0816F00C94B60A0C947708689483
S11314700C9471080E94B108A8F39923C1F3AEF348
S1131480DF93CF931F930F93FF92C92FDD278823F8
S11314902AF02197660F771F881FDAF720E030E0E3
S11314A040E85FEB9FE3883920F0803E38F02196D6
S11314B08F770E94DC06E0E9F0E004C00E94DC06BD
S11314C0EDEBF0E00E94C9098B01BE01EC01FB2E9B
S11314D06F5771097595771F880B990B0E94F80750
S11314E028E132E741E35FE30E94E508AF2D98016C
S11314F0AE01FF900F911F91CF91DF910E94F306EF
S11315000C949808FA01DC01AA0FBB1F9B01AC01E3
S1131510BF5728F4222733274427507820C0B751D7
S113152090F4AB2F0024469537952795011CA3957D
S1131530D2F3002071F0220F331F441FB395DAF366
S11315400ED00C94DB0661307105A0E88A07B94619
S113155030F49B01AC016627772788279078309672
S113156021F0208331834283538308959F3F31F0D8
S1131570915020F4879577956795B795880F911DBD
S11315809695879597F90895DB018F939F930E9411
S1131590E80ABF91AF91A29F800D911DA39F900D6A
S11315A0B29F900D1124089597FB072E16F4009412
S11315B007D077FD09D00E94800C07FC05D03EF4CB
S11315C0909581959F4F0895709561957F4F0895EB
S11315D00E94940CA59F900DB49F900DA49F800D24
S11315E0911D11240895B7FF0C94E80A0E94E80A9B
S11315F0821B930B0895DF93CF931F930F939A9DB0
S1131600F02D219FF00D8B9DF00D8A9DE02DF10DA5
S1131610039FF00D029FE00DF11D4E9DE00DF11DA5
S11316205E9DF00D4F9DF00D7F936F93BF92AF922F
S11316305F934F93D5010E94940C8B01AC01D701A9
S11316400E94940CEB01E80FF91FD6010E944B0B8A
S11316502F913F91D6010E94940CC60FD71FE81F0B
S1131660F91FAF91BF910E944B0B2F913F910E94A4
S1131670940CC60FD71FE81FF91FD6010E94940CC3
S1131680E60FF71F9801BE01CF0111240F911F919E
S1131690CF91DF9108950E94940C460F571FC81FE5
S11316A0D91F08F431960895689401C0E894F92F7D
S11316B0F12B12F00C94880BA0E0B0E0E2E6FBE022
S11316C00C94FA0B092E059422F40E94E40B1123C6
S11316D092F4F0E80F26FFEFE094F0940095109553
S11316E0B094C094D094A194BF0ACF0ADF0AEF0A41
S11316F0FF0A0F0B1F0B0E94930B07FC0E94E40BC5
S1131700CDB7DEB7ECE00C94160C689401C0E894F5
S11317108F929F92CF93DF930E94930BDF91CF918F
S11317209F908F90089588249924F401E401B0E4F3
S11317309F93AA279A158B049C04ED05FE05CF05FB
S1131740D007A10798F4AD2FDC2FCF2FFE2FE92D62
S1131750982C892E982F872F762F652F542F432F5F
S1131760322F2227B85031F7BF9127C01B2EBF91CB
S1131770BB27220F331F441F551F661F771F881F67
S1131780991F881C991CEE1FFF1FCC1FDD1FAA1F69
S1131790BB1F8A149B04EC05FD05CE05DF05A007DD
S11317A0B10748F08A189B08EC09FD09CE09DF0946
S11317B0A00BB10B21601A94E1F62EF49401AF0151
S11317C0BE01CD01000C08956095709580959095AB
S11317D030954095509521953F4F4F4F5F4F6F4F38
S11317E07F4F8F4F9F4F08952F923F924F925F925A
S11317F06F927F928F929F92AF92BF92CF92DF921D
S1131800EF92FF920F931F93CF93DF93CDB7DEB781
S1131810CA1BDB0B0FB6F894DEBF0FBECDBF099415
S11318202A88398848885F846E847D848C849B846C
S1131830AA84B984C884DF80EE80FD800C811B817A
S1131840AA81B981CE0FD11D0FB6F894DEBF0FBEA9
S1131850CDBFED0108950F93083090F0982F872F96
S1131860762F652F542F432F322F22270850F4CF81
S1131870220F331F441F551F661F771F881F991F90
S11318800A95B2F70F91089597FB10F81694000883
S11318900F93083098F00850232F342F452F562FDC
S11318A0672F782F892F902DF4CF059497958795DE
S11318B07795679557954795379527950A95AAF78C
S11318C00F9108952A0D3B1D4C1D5D1D6E1D7F1D3E
S11318D0801F911F08952A193B094C095D096E095F
S11318E07F09800B910B08950024A7FD00942A170B
S11318F03005400550056005700580059005089584
S1131900AA1BBB1B51E107C0AA1FBB1FA617B70721
S113191010F0A61BB70B881F991F5A95A9F780953D
S11319209095BC01CD010895A29FB001B39FC00161
S1131930A39F700D811D1124911DB29F700D811DF7
S10D19401124911D0895F894FFCFBF
S107194A0A0D00007E
S9030000FC
