:100000000C9475000C9487000C9487000C94870066
:100010000C9487000C9408040C9487000C948700BF
:100020000C9487000C9487000C9487000C94870034
:100030000C9487000C9487000C9487000C94870024
:100040000C9487000C9487000C94DD030C948700BB
:100050000C9487000C9487000C9487000C94870004
:100060000C9487000C94870007634236B79BD8A78F
:100070001A39685618AEBAAB558C1D3CB7CC5763CD
:10008000BD6DEDFD753EF6177231BF000000803F7B
:1000900008000000BE922449123EABAAAA2ABECD97
:1000A000CCCC4C3E00000080BEABAAAAAA3E000009
:1000B0000000BF000000803F000000000008417801
:1000C000D3BB4387D1133D190E3CC3BD4282AD2B38
:1000D0003E68EC8276BED98FE1A93E4C80EFFFBE30
:1000E00001C4FF7F3F000000000011241FBECFEFBE
:1000F000D8E0DEBFCDBF21E0A0E0B1E001C01D929D
:10010000A330B207E1F70E944D040C945A0D0C94F1
:100110000000ECE7F0E080818F7D80838081806447
:10012000808380818F778083EAE7F0E0808181603F
:10013000808380818260808380818460808317B81F
:10014000089590917C00907F90937C0090917C002A
:10015000892B80937C0080917A00806880937A005C
:1001600085E38A95F1F7000080917A00806480939E
:100170007A0080917A0084FFFCCF80917A008061C0
:1001800080937A0080917A008F7780937A006091D3
:1001900078007091790080E090E00E946C080895EA
:1001A00046EB60EE86E70E94CE0547E564EF86E702
:1001B0000E94CE0540E165EF86E70C94CE05CF9313
:1001C000DF93C82F682F86E70E94F505D82F61E0DE
:1001D0006C0F86E70E94F5052D2F30E0A901582B02
:1001E000CA01DF91CF9108958F929F92AF92BF92F3
:1001F000CF92DF92EF92FF92CF93DF936AEF86E781
:100200000E94F505C82F6BEF86E70E94F505C82E02
:100210006CEF86E70E94F505D12CE12CF12CFE2C29
:10022000ED2CDC2CCC24EC2AC82A88E80E94DF00C4
:100230005C018AE80E94DF00EC018CE80E94DF008C
:10024000FC01C501A0E0B0E08D2C9E2CAF2CBB249E
:10025000A7FCBA94881A990AAA0ABB0AB701A60190
:1002600037E075956795579547953A95D1F7880F7B
:10027000991FAA1FBB1F9A01AB01281B390B4A0B00
:100280005B0BDE010E94880B6B017C013BE0F59467
:10029000E794D794C7943A95D1F7A5019401C50185
:1002A000B4010E943A0B9B01AC016CE05595479557
:1002B000379527956A95D1F7DF010E94880BDC01FD
:1002C000CB017EE0B595A795979587957A95D1F75F
:1002D000BC01CD016C0D7D1D8E1D9F1DDF91CF9149
:1002E000FF90EF90DF90CF90BF90AF909F908F9056
:1002F00008950E94F4009B01AC01A5E0B0E00E94CB
:100300007D0BDC01CB0180589F4FAF4FBF4F692F52
:100310007A2F8B2F992787FD9A9524E630E040E0CD
:1003200050E00E945E0BCA01B9010E946E08089558
:100330002F923F924F925F926F927F928F929F92F5
:10034000AF92BF92CF92DF92EF92FF920F931F93E3
:10035000CF93DF93CDB7DEB7A4970FB6F894DEBF87
:100360000FBECDBF67EF86E70E94F5058C8F68EF63
:1003700086E70E94F5058D8F69EF86E70E94F505F7
:100380008E8F8EE80E94DF009B878A8780E90E941B
:10039000DF00982E9F8B82E90E94DF00282E9E8B23
:1003A00084E90E94DF008F8F998B86E90E94DF002D
:1003B00088A39A8B88E90E94DF0089A399878AE93C
:1003C0000E94DF008AA39B8B8CE90E94DF008BA335
:1003D0009C8B8EE90E94DF008CA39D8B0E94F40011
:1003E0006B017C01FF0CCC08DC2C76019B01AC017D
:1003F0006C2D7C2D8C2D9C2D345F41405109610961
:1004000071098109910929833A834B835C836D8348
:100410007E838F83988759016A017B018C010E943A
:10042000900B2C873D874E875F87688B798F8A8FEB
:100430009B8F292D9F89990F990B3F89492F592F00
:10044000692F792F892F0E94900B0CE00E94C00C1D
:10045000322E432E542E652E762E872E982E9F8B6D
:10046000222D9E89990F990BAC84BD84CE84DF84A4
:10047000E888F98C0A8D1B8D3E89492F592F692FE9
:10048000792F892F0E94900B08E00E94D90CA32C91
:10049000B42CC52CD62CE72CF82C092D1F890E94D2
:1004A000F70C70588F4F9F4FEA85FB855F01C12C79
:1004B000D12CE12CF12C00E010E00E94900B01E225
:1004C0000E94D90C2A873E8B4F8B452E562E372EF5
:1004D000282E988FA0E00E94090D09F41EC1FD8D01
:1004E0008F2F90E0A0E0B0E0BA2FA92F982F882797
:1004F0002C8DA22B3C014D01EE8D6E2A29A19985F0
:10050000990F990BAC84BD84CE84DF84E888F98C84
:100510000A8D1B8D3985492F592F692F792F892FE6
:100520000E94900B29873C874D875E876F87788B69
:100530008A8F998F28A19A89990F990BA980BA80DF
:10054000CB80DC80ED80FE800F8118853A89492FB1
:10055000592F692F792F892F0E94900B01E10E945A
:10056000C00CA984BC84CD84DE84EF84F8880A8D15
:10057000198D0E94F70C59016A017B018983192F9B
:10058000B401A30134E075956795579547953A9561
:10059000D1F780E090E0A0E1B0E0841B950BA60BC2
:1005A000B70B3C014D01990C6608762C43019C0168
:1005B000AD01662D762D862D962D0FE10E94C00C83
:1005C00049014B835A83B62FA72FF82FE92F2F8D80
:1005D0009989990F990B3989492F592F692F792FAB
:1005E000892F03E20E94C00C09810E94F70C590177
:1005F0006A017B018C0194014B815A816B2F7A2F08
:100600008F2F9E2F0E94000DE5E3AE2EFCE0BF2E43
:10061000C12CD12CE12CF12C00E010E00E94900BB9
:10062000AA84BE88CF88D42CE52CF32C022D188DFB
:100630000E94EB0B28873F8349835A836B837C831B
:100640008D839E830DE00E94D90C922E292E2CA121
:100650009D89990F990BA92CB32EC42ED52EE62E69
:10066000F72E082F122D3D89492F592F692F792FE9
:10067000892F0E94900B0E94900B09E10E94D90CD7
:10068000A884BF80C980DA80EB80FC800D811E8148
:100690000E94F70C19012A013B014C012BA19C89F6
:1006A000990F990B3C89492F592F692F792F892F41
:1006B0000E94900B03E10E94D90C59016A017B0151
:1006C0008C019101A201B301C4010E94F70C08E062
:1006D0000E94D90C59016A017B01E82F192F2AA128
:1006E0009B89990F990B3B89492F592F692F792F96
:1006F000892F04E00E94C00C0E2F0E94F70CA12C41
:10070000A4E6BA2EC12CD12CE12CF12C00E010E093
:100710000E94EB0B0E94660803C060E070E0CB0112
:10072000A4960FB6F894DEBF0FBECDBFDF91CF9178
:100730001F910F91FF90EF90DF90CF90BF90AF90FF
:100740009F908F907F906F905F904F903F902F90F1
:10075000089580E090E00E94A10020E030E040EAAF
:1007600050E40E94480920E030E040E85AE30E944B
:10077000480920E030E048EC52E40E94480920E0BB
:1007800030E040E950E40E94BE07089581E090E027
:100790000E94A1002FEF3FEF4FE95BE30E94480961
:1007A00020E030E048EC52E40E94480923E333E9BA
:1007B00048E853E40E94510708951F920F920FB624
:1007C0000F9211242F933F934F935F936F937F93D7
:1007D0008F939F93AF93BF93EF93FF930E94310644
:1007E000809302010E943A068AE00E943A06FF9135
:1007F000EF91BF91AF919F918F917F916F915F9199
:100800004F913F912F910F900FBE0F901F90189511
:100810001F920F920FB60F9211242F933F934F9375
:100820005F936F937F938F939F93AF93BF93EF9358
:10083000FF934A9B05C010928500109284001CC053
:100840006091840070918500F89480E090E00E94AF
:100850006C0821E233E94CE05DE30E94480920E0A6
:1008600030E040E85EE30E9448090E943708709338
:100870000101609300017894FF91EF91BF91AF91D6
:100880009F918F917F916F915F914F913F912F91A8
:100890000F900FBE0F901F901895CF93DF93CDB799
:1008A000DEB72E970FB6F894DEBF0FBECDBFF8941B
:1008B0000E9420060E9489000E946E050E94D000BE
:1008C0000E9402050E9421078FE39CE90197F1F73E
:1008D00000C0000078940E94C60369837A838B83EA
:1008E0009C830E94A9036D837E838F8398870E94D7
:1008F00098012B013C010E94790169877A878B87D7
:100900009C8781E090E00E9420057C0182E090E0DD
:100910000E9420058C0183E090E00E9420059E87C4
:100920008D8781E090E00E9447055C0182E090E0C5
:100930000E9447056C0183E090E00E9447054C014E
:100940000E94410780910201813419F4C301B20170
:100950004DC0823429F46D817E818F81988546C097
:10096000833429F469817A818B819C813FC08434EE
:1009700029F469857A858B859C8538C0853429F46E
:10098000B501BB0C880B990B24C0863429F4B60141
:10099000DD0C880B990B1DC0873429F4B401990C28
:1009A000880B990B16C0883429F4B701FF0C880B0B
:1009B000990B0FC0893429F4B801110F880B990BDA
:1009C00008C08A3449F42D853E85B901330F880B60
:1009D000990B0E946E080AC08B3469F46091000183
:1009E0007091010180E090E00E946C080E94410635
:1009F0008AE00E943A068FE39CE90197F1F700C074
:100A0000000069CF40E06BE688E60E94CE0541E039
:100A10006AE188E60E94CE0540E06BE188E60E942C
:100A2000CE0540E06CE188E60E94CE0540E068E338
:100A300088E60E94CE0547E068E688E60C94CE057D
:100A4000CF938130910539F46BE388E60E94F50578
:100A5000C82F6CE312C08230910539F46DE388E64B
:100A60000E94F505C82F6EE308C0039751F46FE3A9
:100A700088E60E94F505C82F60E488E60E94F50527
:100A800002C08FEFCFEF90E09C2BCF910895CF93D2
:100A90008130910539F463E488E60E94F505C82F9A
:100AA00064E412C08230910539F465E488E60E945E
:100AB000F505C82F66E408C0039751F467E488E69B
:100AC0000E94F505C82F68E488E60E94F50502C07B
:100AD0008FEFCFEF90E09C2BCF9108951092B9004B
:100AE00080E28093B80010926400089584EA8093B5
:100AF000BC008091BC0087FFFCCF9091B900987F2B
:100B000081E0983009F480E0089584EA8093BC0085
:100B10008091BC0087FFFCCF9091B900987F81E065
:100B2000903109F480E00895880F662319F0816000
:100B300040E401C048E18093BB0084E88093BC009E
:100B40008091BC0087FFFCCF2091B900287F30E066
:100B500050E081E02417350709F480E00895809380
:100B6000BB0084E88093BC008091BC0087FFFCCF71
:100B70009091B900987F81E0983209F480E008955F
:100B800020E4829FC001112484688093BC0080917E
:100B9000BC0087FFFCCF8091BB0008951F93CF93CB
:100BA000DF93182FD62FC42F0E9476058111FCCF1A
:100BB00060E0812F0E9494058111FACF8D2F0E9451
:100BC000AF058111FBCF8C2F0E94AF058111FBCFA8
:100BD00084E98093BC008FE891E00197F1F700C0B1
:100BE0000000DF91CF911F910895CF93DF93C82F1D
:100BF000D62F0E9476058111FCCF60E08C2F0E94D9
:100C000094058111FACF8D2F0E94AF058111FBCF82
:100C10000E9485058111FCCF61E08C2F0E94940514
:100C20008111FACF0E94C00594E99093BC00EFE8CF
:100C3000F1E03197F1F700C00000DF91CF91089506
:100C4000519A50981092C00088E98093C10086E0C4
:100C50008093C20087E690E09093C5008093C40023
:100C600008958091C00087FF03C08091C600089559
:100C700080E008959091C00095FFFCCF8093C6005E
:100C800008953F924F925F926F927F928F929F92C0
:100C9000AF92BF92CF92DF92EF92FF920F931F938A
:100CA000CF93DF93CDB7DEB72A970FB6F894DEBFA8
:100CB0000FBECDBF2B013C010E943008DB0177FF46
:100CC0000AC0AA27BB27A61BB70B77FA709477F840
:100CD000709440E001C041E0FE01319620E030E038
:100CE0007F010AE010E0D22EAA30B1054CF0CD0110
:100CF000B8010E944A0B8193DB012F5F3F4FF3CF76
:100D0000109741F0D394F701E20FF31FA083411134
:100D10000BC002C0411103C08DE20E943A06D110FF
:100D200003C01982DD24D3940D2D10E0E00EF11ED6
:100D3000CC24C394D12C81E0E81AF1080C151D05D0
:100D40007CF1F701308080E3830D0E943A06B80100
:100D50006C197D09072E000C880B990B0E946E08F8
:100D60009B01AC0160E070E080E291E40E94B50973
:100D70004B015C01632D70E080E090E00E946E0802
:100D8000A50194010E9448099B01AC01C301B20175
:100D90000E9451072B013C01FFEFCF1ADF0ACBCF96
:100DA0008EE20E943A0620E030E040E251E4C301C6
:100DB000B2010E9448096B017C0120E030E040E470
:100DC00052E40E9452070E943708862F0E943A067A
:100DD000C701B6010E943008062E000C770B880B65
:100DE000990B0E946E089B01AC01C701B6010E94DD
:100DF000510720E030E040E251E40E94480920E041
:100E000030E040E452E40E9452070E943708862FE7
:100E10002A960FB6F894DEBF0FBECDBFDF91CF91FB
:100E20001F910F91FF90EF90DF90CF90BF90AF9008
:100E30009F908F907F906F905F904F903F900C9419
:100E40003A06539A52985B98E1E8F0E080818E7FF1
:100E5000808380818260808380818B7F808380819A
:100E6000806480831092850010928400E8E6F0E0B0
:100E7000808184608083EDE6F0E0808184608083FF
:100E800008955B9A2AE02A95F1F700C05B988FEFEE
:100E90009DEE22E0815090402040E1F700C000002C
:100EA00008955058BB27AA270E9469070C940E0981
:100EB0000E94000938F00E94070920F039F49F3F92
:100EC00019F426F40C94ED080EF4E095E7FB0C946D
:100ED000E708E92F0E941F0958F3BA176207730742
:100EE0008407950720F079F4A6F50C9441090EF4D7
:100EF000E0950B2EBA2FA02D0B01B90190010C012A
:100F0000CA01A0011124FF27591B99F0593F50F441
:100F1000503E68F11A16F040A22F232F342F442799
:100F2000585FF3CF469537952795A795F040539591
:100F3000C9F77EF41F16BA0B620B730B840BBAF061
:100F40009150A1F0FF0FBB1F661F771F881FC2F7CC
:100F50000EC0BA0F621F731F841F48F487957795E0
:100F60006795B795F7959E3F08F0B0CF9395880F9A
:100F700008F09927EE0F9795879508950E94D2075C
:100F80000C940E090E94070958F00E94000940F0D5
:100F900029F45F3F29F00C94E70851110C944209A1
:100FA0000C94ED080E941F0968F39923B1F35523AF
:100FB00091F3951B550BBB27AA276217730784076C
:100FC00038F09F5F5F4F220F331F441FAA1FA9F302
:100FD00035D00E2E3AF0E0E832D091505040E695F0
:100FE000001CCAF72BD0FE2F29D0660F771F881F51
:100FF000BB1F261737074807AB07B0E809F0BB0B44
:10100000802DBF01FF2793585F4F3AF09E3F510557
:1010100078F00C94E7080C9442095F3FE4F3983EA3
:10102000D4F3869577956795B795F7959F5FC9F740
:10103000880F911D9695879597F90895E1E0660FC1
:10104000771F881FBB1F621773078407BA0720F03A
:10105000621B730B840BBA0BEE1F88F7E0950895A3
:101060000E9437086894B1110C94420908950E94B7
:10107000270988F09F5798F0B92F9927B751B0F0FA
:10108000E1F0660F771F881F991F1AF0BA95C9F70C
:1010900014C0B13091F00E944109B1E008950C9460
:1010A0004109672F782F8827B85F39F0B93FCCF313
:1010B000869577956795B395D9F73EF49095809589
:1010C000709561957F4F8F4F9F4F089597FB16F452
:1010D0000E94F0080C94AA08E89409C097FB3EF41B
:1010E00090958095709561957F4F8F4F9F4F992375
:1010F000A9F0F92F96E9BB279395F69587957795F3
:101100006795B795F111F8CFFAF4BB0F11F460FFB2
:101110001BC06F5F7F4F8F4F9F4F16C0882311F00A
:1011200096E911C0772321F09EE8872F762F05C01E
:10113000662371F096E8862F70E060E02AF09A95B9
:10114000660F771F881FDAF7880F9695879597F9AE
:101150000895E894F92F96EBFF2381F012161306F9
:101160001406440B9395F695879577956795579553
:101170004040FF23B9F71BC099270895882351F4F5
:101180009850D2F7872B762F652F542F432F322F6D
:1011900020E0B1F3121613061406440B88233AF02C
:1011A0009A95440F551F661F771F881FCAF755234E
:1011B0004AF4440F551F11F460FF04C06F5F7F4F66
:1011C0008F4F9F4F880F9695879597F9089597F9B8
:1011D0009F6780E870E060E008959FEF80EC0895DD
:1011E0009095809570956095509540953095219596
:1011F0003F4F4F4F5F4F6F4F7F4F8F4F9F4F089520
:1012000000240A94161617061806090608950024E5
:101210000A9412161306140605060895092E03945F
:10122000000C11F4882352F0BB0F40F4BF2B11F4D3
:1012300060FF04C06F5F7F4F8F4F9F4F089557FD32
:101240009058440F551F59F05F3F71F04795880F34
:1012500097FB991F61F09F3F79F0879508951216CB
:1012600013061406551FF2CF4695F1DF08C0161677
:1012700017061806991FF1CF869571056105089428
:101280000895E894BB2766277727CB0197F908953F
:101290000E945B090C940E090E94000938F00E941C
:1012A000070920F0952311F00C94E7080C94ED0841
:1012B00011240C9442090E941F0970F3959FC1F3F9
:1012C000950F50E0551F629FF001729FBB27F00DF4
:1012D000B11D639FAA27F00DB11DAA1F649F662749
:1012E000B00DA11D661F829F2227B00DA11D621F98
:1012F000739FB00DA11D621F839FA00D611D221F52
:10130000749F3327A00D611D231F849F600D211D35
:10131000822F762F6A2F11249F5750409AF0F1F0B8
:1013200088234AF0EE0FFF1FBB1F661F771F881F21
:1013300091505040A9F79E3F510580F00C94E7086A
:101340000C9442095F3FE4F3983ED4F38695779579
:101350006795B795F795E7959F5FC1F7FE2B880FC7
:10136000911D9695879597F90895FA01EE0FFF1F45
:10137000309621053105A1F16115710561F48038C0
:10138000BFE39B0749F168949038810561F080388C
:10139000BFEF9B0741F099234AF5FF3FE105310577
:1013A000210519F1E8940894E795D901AA2329F4B5
:1013B000AB2FBE2FF85FD0F310C0FF5F70F4A6957F
:1013C000E0F7F73950F019F0FF3A38F49F779F9320
:1013D0000DD00F9007FC9058089546F00C94ED083E
:1013E00060E070E080E89FE308954FE79F775F93A8
:1013F0004F933F932F930E94B00A2F913F914F91AB
:101400005F910E9448090C940D0A29F416F00C947F
:10141000E7080C9441090C94ED080E942709A8F3F1
:101420009638A0F707F80F92E8942BE33AEA48EBD6
:101430005FE70E945E090F920F920F924DB75EB761
:101440000F920E94F80AE8E6F0E00E943F0A4F91EE
:101450005F91EF91FF91E595EE1FFF1F49F0FE5759
:10146000E0684427EE0F441FFA95E1F74195550BCC
:101470000E94720A0F9007FE0C94660A0895DF938B
:10148000CF931F930F93FF92EF92DF927B018C011A
:10149000689406C0DA2EEF010E945B09FE01E89411
:1014A000A5912591359145915591A6F3EF010E94A3
:1014B0006907FE019701A801DA9469F7DF90EF90C0
:1014C000FF900F911F91CF91DF9108959B01AC0187
:1014D00060E070E080E89FE30C94BE070C94E7089E
:1014E0000C942C0B0E942709D8F39923C9F3940F6D
:1014F000511DA3F39150504094F059F0882332F0DD
:10150000660F771F881F91505040C1F79E3F5105CD
:101510002CF7880F911D9695879597F908955F3F51
:10152000ACF0983E9CF0BB27869577956795B7956C
:1015300008F4B1609395C1F7BB0F58F711F460FF41
:10154000E8CF6F5F7F4F8F4F9F4FE3CF0C944209DF
:1015500016F00C942C0B0C94ED0868940C94E7088E
:101560000E942709A8F39923C1F3AEF3DF93CF9329
:101570001F930F93FF92C92FDD2788232AF021970D
:10158000660F771F881FDAF720E030E040E85FEB56
:101590009FE3883920F0803E38F021968F770E94B3
:1015A0005207E0E9F0E004C00E945207EDEBF0E0E2
:1015B0000E943F0A8B01BE01EC01FB2E6F5771099F
:1015C0007595771F880B990B0E946E0828E132E70A
:1015D00041E35FE30E945B09AF2D9801AE01FF90EC
:1015E0000F911F91CF91DF910E9469070C940E0912
:1015F000FA01DC01AA0FBB1F9B01AC01BF5728F405
:10160000222733274427507820C0B75190F4AB2FBE
:101610000024469537952795011CA395D2F3002009
:1016200071F0220F331F441FB395DAF30ED00C94E0
:10163000510761307105A0E88A07B94630F49B0173
:10164000AC016627772788279078309621F0208391
:1016500031834283538308959F3F31F0915020F4AA
:10166000879577956795B795880F911D969587957E
:1016700097F90895DB018F939F930E947D0BBF9193
:10168000AF91A29F800D911DA39F900DB29F900DD1
:101690001124089597FB072E16F4009407D077FDC8
:1016A00009D00E94150D07FC05D03EF49095819558
:1016B0009F4F0895709561957F4F0895052E97FB74
:1016C0001EF400940E94750B57FD07D00E94290D4F
:1016D00007FC03D04EF40C94750B50954095309553
:1016E00021953F4F4F4F5F4F08959095809570958E
:1016F00061957F4F8F4F9F4F08950E944B0DA59F7F
:10170000900DB49F900DA49F800D911D11240895FC
:10171000B7FF0C947D0B0E947D0B821B930B0895E9
:10172000DF93CF931F930F939A9DF02D219FF00D80
:101730008B9DF00D8A9DE02DF10D039FF00D029F12
:10174000E00DF11D4E9DE00DF11D5E9DF00D4F9DD4
:10175000F00D7F936F93BF92AF925F934F93D5013C
:101760000E944B0D8B01AC01D7010E944B0DEB0188
:10177000E80FF91FD6010E94E00B2F913F91D6018F
:101780000E944B0DC60FD71FE81FF91FAF91BF91E5
:101790000E94E00B2F913F910E944B0DC60FD71F67
:1017A000E81FF91FD6010E944B0DE60FF71F9801A5
:1017B000BE01CF0111240F911F91CF91DF910895A8
:1017C0000E944B0D460F571FC81FD91F08F43196B2
:1017D0000895689401C0E894F92FF12B12F00C944D
:1017E0001D0CA0E0B0E0E7EFFBE00C948F0C092E9D
:1017F000059422F40E94790C112392F4F0E80F264C
:10180000FFEFE094F09400951095B094C094D094BC
:10181000A194BF0ACF0ADF0AEF0AFF0A0F0B1F0BC2
:101820000E94280C07FC0E94790CCDB7DEB7ECE0D3
:101830000C94AB0C689401C0E8948F929F92CF9364
:10184000DF930E94280CDF91CF919F908F90089595
:1018500088249924F401E401B0E49F93AA279A15FF
:101860008B049C04ED05FE05CF05D007A10798F475
:10187000AD2FDC2FCF2FFE2FE92D982C892E982FFE
:10188000872F762F652F542F432F322F2227B850C2
:1018900031F7BF9127C01B2EBF91BB27220F331FEB
:1018A000441F551F661F771F881F991F881C991C8E
:1018B000EE1FFF1FCC1FDD1FAA1FBB1F8A149B0436
:1018C000EC05FD05CE05DF05A007B10748F08A1835
:1018D0009B08EC09FD09CE09DF09A00BB10B2160C3
:1018E0001A94E1F62EF49401AF01BE01CD01000C73
:1018F0000895609570958095909530954095509598
:1019000021953F4F4F4F5F4F6F4F7F4F8F4F9F4FEF
:1019100008952F923F924F925F926F927F928F9293
:101920009F92AF92BF92CF92DF92EF92FF920F936E
:101930001F93CF93DF93CDB7DEB7CA1BDB0B0FB678
:10194000F894DEBF0FBECDBF09942A883988488835
:101950005F846E847D848C849B84AA84B984C884CB
:10196000DF80EE80FD800C811B81AA81B981CE0FC2
:10197000D11D0FB6F894DEBF0FBECDBFED010895A7
:101980000F93083090F0982F872F762F652F542FC4
:10199000432F322F22270850F4CF220F331F441F2A
:1019A000551F661F771F881F991F0A95B2F70F9161
:1019B000089597FB10F8169400080F93083098F0DC
:1019C0000850232F342F452F562F672F782F892F1C
:1019D000902DF4CF059497958795779567955795B2
:1019E0004795379527950A95AAF70F9108952A0DDF
:1019F0003B1D4C1D5D1D6E1D7F1D801F911F089599
:101A00002A193B094C095D096E097F09800B910B6E
:101A100008950024A7FD00942A17300540055005BD
:101A200060057005800590050895AA1BBB1B51E158
:101A300007C0AA1FBB1FA617B70710F0A61BB70B3E
:101A4000881F991F5A95A9F780959095BC01CD01E3
:101A50000895A1E21A2EAA1BBB1BFD010DC0AA1FEF
:101A6000BB1FEE1FFF1FA217B307E407F50720F007
:101A7000A21BB30BE40BF50B661F771F881F991F82
:101A80001A9469F760957095809590959B01AC01CB
:101A9000BD01CF010895A29FB001B39FC001A39FD4
:101AA000700D811D1124911DB29F700D811D112497
:081AB000911D0895F894FFCF89
:00000001FF
