:100000000C9434000C9446000C9446000C9446006A
:100010000C9446000C9446000C9446000C94460048
:100020000C9446000C9446000C9446000C94460038
:100030000C9446000C9446000C9446000C94460028
:100040000C9446000C9446000C9446000C94460018
:100050000C9446000C9446000C9446000C94460008
:100060000C9446000C94460011241FBECFEFD8E03C
:10007000DEBFCDBF21E0A0E0B1E001C01D92A23003
:10008000B207E1F70E9448000C9413010C940000A1
:10009000F89482E390E00E946D00789485E090E00F
:1000A0000E949F000E948F002FEF83ED90E321506C
:1000B00080409040E1F700C000008AE090E00E949C
:1000C0009F000E948F002FEF83ED90E3215080402E
:1000D0009040E1F700C00000E1CF9C0184B58E7F25
:1000E00084BD84B5826084BD85B5886085BD85B5D5
:1000F000806185BD3093010120930001032E000C27
:10010000440B550B69E07DE380E090E00E94CF0056
:100110002150310930938700209386000895109272
:10012000850010928400E1E8F0E0808181608083A6
:1001300080818D7F80838081846080830895CF93C8
:10014000DF93EC0184B1826084B9E0E8F0E0808163
:100150008F7B808380818068808320910001309133
:100160000101032E000C440B550B69E07DE380E098
:1001700090E00E94CF002150310941095109DE0170
:100180000E94F10024E630E040E050E00E94CF0001
:100190003093890020938800DF91CF910895A1E2E8
:1001A0001A2EAA1BBB1BFD010DC0AA1FBB1FEE1FF1
:1001B000FF1FA217B307E407F50720F0A21BB30B3C
:1001C000E40BF50B661F771F881F991F1A9469F7B8
:1001D00060957095809590959B01AC01BD01CF0114
:1001E0000895B7FF0C94F9000E94F900821B930B4D
:1001F00008950E940401A59F900DB49F900DA49FA7
:10020000800D911D11240895A29FB001B39FC001DC
:10021000A39F700D811D1124911DB29F700D811D32
:0A0220001124911D0895F894FFCFFA
:00000001FF
