:100000000C9434000C9446000C9446000C9446006A
:100010000C9446000C9446000C9446000C94460048
:100020000C9446000C9446000C9446000C94460038
:100030000C9446000C9446000C9446000C94460028
:100040000C9446000C9446000C9446000C94460018
:100050000C9446000C9446000C9446000C94460008
:100060000C9446000C94460011241FBECFEFD8E03C
:10007000DEBFCDBF21E0A0E0B1E001C01D92A23003
:10008000B207E1F70E9448000C941F010C94000095
:10009000F89484E690E00E9477007894CAE0D0E07B
:1000A000CE010E94AD000E949D002FEF81EE94E0F2
:1000B000215080409040E1F700C000002196C431FB
:1000C000D10571F7C4E1D0E0CE010E94AD000E94DD
:1000D0009D002FEF81EE94E0215080409040E1F7A9
:1000E00000C000002197CA30D10571F7D7CF9C011D
:1000F000E0E8F0E080818E7F808380818260808371
:10010000E1E8F0E080818860808380818061808385
:100110003093010120930001032E000C440B550B7A
:1001200069E07DE380E090E00E94DB00215031092E
:1001300030938700209386000895109285001092D6
:100140008400E1E8F0E080818160808380818D7FA0
:1001500080838081846080830895CF93DF93EC0156
:10016000219AE0E8F0E080818F7B80838081806845
:1001700080832091000130910101032E000C440B7B
:10018000550B69E07DE380E090E00E94DB002150A8
:10019000310941095109DE010E94FD0024E630E0E9
:1001A00040E050E00E94DB003093890020938800FB
:1001B000DF91CF910895A1E21A2EAA1BBB1BFD016E
:1001C0000DC0AA1FBB1FEE1FFF1FA217B307E40736
:1001D000F50720F0A21BB30BE40BF50B661F771F8E
:1001E000881F991F1A9469F760957095809590956E
:1001F0009B01AC01BD01CF010895B7FF0C9405012F
:100200000E940501821B930B08950E941001A59F77
:10021000900DB49F900DA49F800D911D1124089501
:10022000A29FB001B39FC001A39F700D811D112437
:10023000911DB29F700D811D1124911D0895F89498
:02024000FFCFEE
:00000001FF
