:100000000C9475000C9492000C9492000C94920045
:100010000C9492000C9492000C9492000C94920018
:100020000C9492000C9492000C9492000C94920008
:100030000C9492000C9492000C9492000C949200F8
:100040000C9492000C9492000C9492000C949200E8
:100050000C9492000C9492000C9492000C949200D8
:100060000C9492000C94920007634236B79BD8A779
:100070001A39685618AEBAAB558C1D3CB7CC5763CD
:10008000BD6DEDFD753EF6177231BF000000803F7B
:1000900008000000BE922449123EABAAAA2ABECD97
:1000A000CCCC4C3E00000080BEABAAAAAA3E000009
:1000B0000000BF000000803F000000000008417801
:1000C000D3BB4387D1133D190E3CC3BD4282AD2B38
:1000D0003E68EC8276BED98FE1A93E4C80EFFFBE30
:1000E00001C4FF7F3F000000000011241FBECFEFBE
:1000F000D8E0DEBFCDBF11E0A0E0B1E0E4E2FDE07A
:1001000002C005900D92A630B107D9F721E0A6E014
:10011000B1E001C01D92A830B207E1F70E94DA00F9
:100120000C9490060C940000ECE7F0E080818F7D49
:10013000808380818064808380818F778083EAE7F9
:10014000F0E0808181608083808182608083808113
:1001500084608083089590917C00907F90937C00D0
:1001600090917C00892B80937C0080917A0080683C
:1001700080937A0083E08A95F1F7000080917A00FD
:10018000806480937A0080917A0084FFFCCF809114
:100190007A00806180937A0080917A008F778093D3
:1001A0007A00609178007091790080E090E00E9480
:1001B00032030895F89488EC90E00E9427010E9491
:1001C00094000E948B0178948EE190E00E945D0182
:1001D0000E944D012FEF81EE94E02150804090402D
:1001E000E1F700C0000080E090E00E94AB0020E05A
:1001F00030E040E252E40E94C00320E030E040E8FA
:100200005AE30E94C00320E030E040E251E40E9443
:1002100090020E94FC026B017C0180E091E00E9450
:10022000A301B6010D2C000C880B990B0E9434031E
:100230000E94AF018AE00E949C01C6010E945D01FC
:100240000E944D018FE99FE00197F1F7CACF9C0111
:10025000E0E8F0E080818E7F80838081826080830F
:10026000E1E8F0E080818860808380818061808324
:100270003093070120930601032E000C440B550B0D
:1002800069E07DE380E090E00E943806215031096A
:100290003093870020938600089510928500109275
:1002A0008400E1E8F0E080818160808380818D7F3F
:1002B00080838081846080830895CF93DF93EC01F5
:1002C000219AE0E8F0E080818F7B808380818068E4
:1002D00080832091060130910701032E000C440B0E
:1002E000550B69E07DE380E090E00E9438062150E4
:1002F000310941095109DE010E945A0624E630E025
:1003000040E050E00E943806309389002093880036
:10031000DF91CF910895519A50981092C00088E9CA
:100320008093C10086E08093C20087E690E09093BE
:10033000C5008093C40008959091C00095FFFCCF44
:100340008093C6000895CF93DF93EC0189918823B1
:1003500019F00E949C01FACFDF91CF9108953F924E
:100360004F925F926F927F928F929F92AF92BF92C5
:10037000CF92DF92EF92FF920F931F93CF93DF9371
:10038000CDB7DEB72A970FB6F894DEBF0FBECDBF4C
:100390002B013C010E94FC02DB0177FF0AC0AA2767
:1003A000BB27A61BB70B77FA709477F8709440E0E0
:1003B00001C041E0FE01319620E030E07F010AE01B
:1003C00010E0D22EAA30B1054CF0CD01B8010E9448
:1003D00024068193DB012F5F3F4FF3CF109741F04D
:1003E000D394F701E20FF31FA08341110BC002C0A9
:1003F000411103C08DE20E949C01D11003C01982FB
:10040000DD24D3940D2D10E0E00EF11ECC24C39416
:10041000D12C81E0E81AF1080C151D057CF1F701DB
:10042000308080E3830D0E949C01B8016C197D0926
:10043000072E000C880B990B0E9434039B01AC0122
:1004400060E070E080E291E40E942D044B015C01C9
:10045000632D70E080E090E00E943403A5019401D8
:100460000E94C0039B01AC01C301B2010E948F0234
:100470002B013C01FFEFCF1ADF0ACBCF8EE20E94A7
:100480009C0120E030E040E251E4C301B2010E944F
:10049000C0036B017C0120E030E040E452E40E94A4
:1004A00090020E940303862F0E949C01C701B6019F
:1004B0000E94FC02062E000C770B880B990B0E9401
:1004C00034039B01AC01C701B6010E948F0220E0FA
:1004D00030E040E251E40E94C00320E030E040E41C
:1004E00052E40E9490020E940303862F2A960FB6C0
:1004F000F894DEBF0FBECDBFDF91CF911F910F915A
:10050000FF90EF90DF90CF90BF90AF909F908F9033
:100510007F906F905F904F903F900C949C0150584B
:10052000BB27AA270E94A7020C9486030E94780387
:1005300038F00E947F0320F039F49F3F19F426F42D
:100540000C9475030EF4E095E7FB0C946F03E92F10
:100550000E94970358F3BA17620773078407950739
:1005600020F079F4A6F50C94B9030EF4E0950B2E67
:10057000BA2FA02D0B01B90190010C01CA01A001F5
:100580001124FF27591B99F0593F50F4503E68F150
:100590001A16F040A22F232F342F4427585FF3CF91
:1005A000469537952795A795F0405395C9F77EF462
:1005B0001F16BA0B620B730B840BBAF09150A1F0AB
:1005C000FF0FBB1F661F771F881FC2F70EC0BA0F31
:1005D000621F731F841F48F4879577956795B795B9
:1005E000F7959E3F08F0B0CF9395880F08F09927B4
:1005F000EE0F9795879508950E9403036894B111B3
:100600000C94BA0308950E949F0388F09F5798F0B6
:10061000B92F9927B751B0F0E1F0660F771F881F07
:10062000991F1AF0BA95C9F714C0B13091F00E9421
:10063000B903B1E008950C94B903672F782F882788
:10064000B85F39F0B93FCCF3869577956795B39548
:10065000D9F73EF490958095709561957F4F8F4FB7
:100660009F4F0895E89409C097FB3EF490958095BC
:10067000709561957F4F8F4F9F4F9923A9F0F92F68
:1006800096E9BB279395F695879577956795B795E6
:10069000F111F8CFFAF4BB0F11F460FF1BC06F5FCC
:1006A0007F4F8F4F9F4F16C0882311F096E911C0DE
:1006B000772321F09EE8872F762F05C0662371F0FF
:1006C00096E8862F70E060E02AF09A95660F771F13
:1006D000881FDAF7880F9695879597F9089597F907
:1006E0009F6780E870E060E008959FEF80EC0895D8
:1006F00000240A9416161706180609060895002401
:100700000A9412161306140605060895092E03947A
:10071000000C11F4882352F0BB0F40F4BF2B11F4EE
:1007200060FF04C06F5F7F4F8F4F9F4F089557FD4D
:100730009058440F551F59F05F3F71F04795880F4F
:1007400097FB991F61F09F3F79F0879508951216E6
:1007500013061406551FF2CF4695F1DF08C0161692
:1007600017061806991FF1CF869571056105089443
:100770000895E894BB2766277727CB0197F908955A
:100780000E94D3030C9486030E94780338F00E94E1
:100790007F0320F0952311F00C946F030C947503E4
:1007A00011240C94BA030E94970370F3959FC1F330
:1007B000950F50E0551F629FF001729FBB27F00D0F
:1007C000B11D639FAA27F00DB11DAA1F649F662764
:1007D000B00DA11D661F829F2227B00DA11D621FB3
:1007E000739FB00DA11D621F839FA00D611D221F6D
:1007F000749F3327A00D611D231F849F600D211D51
:10080000822F762F6A2F11249F5750409AF0F1F0D3
:1008100088234AF0EE0FFF1FBB1F661F771F881F3C
:1008200091505040A9F79E3F510580F00C946F0302
:100830000C94BA035F3FE4F3983ED4F38695779522
:100840006795B795F795E7959F5FC1F7FE2B880FE2
:10085000911D9695879597F90895FA01EE0FFF1F60
:10086000309621053105A1F16115710561F48038DB
:10087000BFE39B0749F168949038810561F08038A7
:10088000BFEF9B0741F099234AF5FF3FE105310592
:10089000210519F1E8940894E795D901AA2329F4D0
:1008A000AB2FBE2FF85FD0F310C0FF5F70F4A6959A
:1008B000E0F7F73950F019F0FF3A38F49F779F933B
:1008C0000DD00F9007FC9058089546F00C947503D6
:1008D00060E070E080E89FE308954FE79F775F93C3
:1008E0004F933F932F930E9428052F913F914F9153
:1008F0005F910E94C0030C94850429F416F00C94B7
:100900006F030C94B9030C9475030E949F03A8F322
:100910009638A0F707F80F92E8942BE33AEA48EBF1
:100920005FE70E94D6030F920F920F924DB75EB70A
:100930000F920E947005E8E6F0E00E94B7044F9124
:100940005F91EF91FF91E595EE1FFF1F49F0FE5774
:10095000E0684427EE0F441FFA95E1F74195550BE7
:100960000E94EA040F9007FE0C94DE040895DF93C2
:10097000CF931F930F93FF92EF92DF927B018C0135
:10098000689406C0DA2EEF010E94D303FE01E894BA
:10099000A5912591359145915591A6F3EF010E94BE
:1009A000A702FE019701A801DA9469F7DF90EF90A2
:1009B000FF900F911F91CF91DF9108959B01AC01A2
:1009C00060E070E080E89FE30C94A4050C946F0352
:1009D0000C9416060E949F03D8F39923C9F3940F31
:1009E000511DA3F39150504094F059F0882332F0F8
:1009F000660F771F881F91505040C1F79E3F5105E9
:100A00002CF7880F911D9695879597F908955F3F6C
:100A1000ACF0983E9CF0BB27869577956795B79587
:100A200008F4B1609395C1F7BB0F58F711F460FF5C
:100A3000E8CF6F5F7F4F8F4F9F4FE3CF0C94BA0388
:100A400016F00C9416060C94750368940C946F03BE
:100A50000E949F03A8F39923C1F3AEF3DF93CF93D2
:100A60001F930F93FF92C92FDD2788232AF0219728
:100A7000660F771F881FDAF720E030E040E85FEB71
:100A80009FE3883920F0803E38F021968F770E94CE
:100A90009002E0E9F0E004C00E949002EDEBF0E08B
:100AA0000E94B7048B01BE01EC01FB2E6F57710948
:100AB0007595771F880B990B0E94340328E132E764
:100AC00041E35FE30E94D303AF2D9801AE01FF9095
:100AD0000F911F91CF91DF910E94A7020C94860382
:100AE000FA01DC01AA0FBB1F9B01AC01BF5728F420
:100AF000222733274427507820C0B75190F4AB2FDA
:100B00000024469537952795011CA395D2F3002024
:100B100071F0220F331F441FB395DAF30ED00C94FB
:100B20008F0261307105A0E88A07B94630F49B0155
:100B3000AC016627772788279078309621F02083AC
:100B400031834283538308950E94B8050C94860331
:100B50000E947F0358F00E94780340F029F45F3F21
:100B600029F00C946F0351110C94BA030C94750383
:100B70000E94970368F39923B1F3552391F3951BD2
:100B8000550BBB27AA2762177307840738F09F5FAE
:100B90005F4F220F331F441FAA1FA9F335D00E2E1B
:100BA0003AF0E0E832D091505040E695001CCAF788
:100BB0002BD0FE2F29D0660F771F881FBB1F26174B
:100BC00037074807AB07B0E809F0BB0B802DBF0122
:100BD000FF2793585F4F3AF09E3F510578F00C94F1
:100BE0006F030C94BA035F3FE4F3983ED4F3869509
:100BF00077956795B795F7959F5FC9F7880F911D12
:100C00009695879597F90895E1E0660F771F881FFD
:100C1000BB1F621773078407BA0720F0621B730BB0
:100C2000840BBA0BEE1F88F7E09508959F3F31F0D3
:100C3000915020F4879577956795B795880F911D0A
:100C40009695879597F9089597FB072E16F40094CB
:100C500007D077FD09D00E94620607FC05D03EF45C
:100C6000909581959F4F0895709561957F4F089558
:100C7000A1E21A2EAA1BBB1BFD010DC0AA1FBB1FA0
:100C8000EE1FFF1FA217B307E407F50720F0A21B12
:100C9000B30BE40BF50B661F771F881F991F1A947F
:100CA00069F760957095809590959B01AC01BD01A9
:100CB000CF010895B7FF0C9476060E947606821B3A
:100CC000930B0895AA1BBB1B51E107C0AA1FBB1FB2
:100CD000A617B70710F0A61BB70B881F991F5A95C8
:100CE000A9F780959095BC01CD0108950E948106D9
:100CF000A59F900DB49F900DA49F800D911D112470
:100D00000895A29FB001B39FC001A39F700D811DE4
:100D10001124911DB29F700D811D1124911D089504
:040D2000F894FFCF75
:060D240050574D3A20007B
:00000001FF
