:100000000C9475000C9487000C9487000C94870066
:100010000C9487000C9487000C9487000C94870044
:100020000C9487000C9487000C9487000C94870034
:100030000C9487000C9487000C9487000C94870024
:100040000C9487000C9487000C94BF000C948700DC
:100050000C9487000C9487000C9487000C94870004
:100060000C9487000C94870007634236B79BD8A78F
:100070001A39685618AEBAAB558C1D3CB7CC5763CD
:10008000BD6DEDFD753EF6177231BF000000803F7B
:1000900008000000BE922449123EABAAAA2ABECD97
:1000A000CCCC4C3E00000080BEABAAAAAA3E000009
:1000B0000000BF000000803F000000000008417801
:1000C000D3BB4387D1133D190E3CC3BD4282AD2B38
:1000D0003E68EC8276BED98FE1A93E4C80EFFFBE30
:1000E00001C4FF7F3F000000000011241FBECFEFBE
:1000F000D8E0DEBFCDBF21E0A0E0B1E001C01D929D
:10010000A130B207E1F70E94E5000C94F8050C94C9
:10011000000084B18E6284B984B18F7E84B985B1C8
:10012000866085B98CB58F7D8CBD81E08CBD1DBC92
:100130008CB580618CBD8CB580648CBD0895813098
:1001400019F0823029F0089585B18D7F85B9089521
:1001500085B18B7F85B90895813019F0823029F0FF
:10016000089585B1826085B9089585B1846085B9A7
:1001700008958EBD0DB407FEFDCF8EB508951F9274
:100180000F920FB60F9211242F933F934F935F93CB
:100190006F937F938F939F93AF93BF93EF93FF934F
:1001A0000E94480180930001FF91EF91BF91AF91B0
:1001B0009F918F917F916F915F914F913F912F917F
:1001C0000F900FBE0F901F901895C0E0F8940E94FA
:1001D00089000E94330178948FE39CE90197F1F73D
:1001E00000C0000080910001803319F0813389F054
:1001F00033C081E00E949F0081E00E94B900C82FB7
:1002000081E00E94AC008C2F0E94510110920001ED
:1002100023C081E00E949F0082E00E94B900D82F95
:1002200081E00E94AC006C2F70E0762F66276D2B6A
:10023000072E000C880B990B0E94E0026B017C01D9
:100240008D2F0E945101C701B6010E9458018AE01A
:100250000E945101109200018FE39CE90197F1F790
:1002600000C00000BFCF8AB182608AB98AB18E7F98
:100270008AB91092C00088E98093C10086E080931B
:10028000C20087E690E09093C5008093C400089573
:100290008091C00088231CF48091C600089580E0FE
:1002A00008959091C00095FFFCCF8093C6000895FB
:1002B0004F925F926F927F928F929F92AF92BF9276
:1002C000CF92DF92EF92FF920F931F93CF93DF9322
:1002D000CDB7DEB72A970FB6F894DEBF0FBECDBFFD
:1002E0004B015C010E94A802AB01BC01CA01992329
:1002F00054F488279927841B950BB7FAB094B7F864
:10030000B09440E001C041E020E030E0C12C1FC0CB
:100310008A3091058CF0C3946AE070E00E94D005A9
:10032000E1E0F0E0EC0FFD1FE20FF31F8083862F6A
:10033000972F2F5F3F4F0BC0009761F0C394E1E010
:10034000F0E0EC0FFD1FE20FF31F808303C02B30A2
:100350003105F4F2411103C08DE20E945101C11038
:1003600002C0C3941982EE24E394F12C33C08B01B4
:100370000E191F09E1E0F0E0EC0FFD1FE00FF11F87
:10038000D08080E38D0D0E945101B801110F880BC0
:10039000990B0E94E0029B01AC0160E070E080E2FA
:1003A00091E40E94D9032B013C016D2D70E080E0A7
:1003B00090E00E94E002A30192010E946C039B0165
:1003C000AC01C501B4010E943B024B015C018FEFFF
:1003D000E81AF80A6C2D70E0CB010196E816F906D0
:1003E00034F28EE20E94510100E010E02AC020E0C9
:1003F00030E040E251E4C501B4010E946C036B019E
:100400007C0120E030E040E452E40E943C020E9483
:10041000AF02862F0E945101C701B6010E94A802B7
:10042000062E000C770B880B990B0E94E0029B01B3
:10043000AC01C701B6010E943B024B015C010F5F9A
:100440001F4F023011059CF22A960FB6F894DEBFBA
:100450000FBECDBFDF91CF911F910F91FF90EF9015
:10046000DF90CF90BF90AF909F908F907F906F90D4
:100470005F904F9008955058BB27AA270E945302BF
:100480000C9432030E94240338F00E942B0320F0C6
:1004900039F49F3F19F426F40C9421030EF4E095EF
:1004A000E7FB0C941B03E92F0E94430358F3BA1790
:1004B000620773078407950720F079F4A6F50C947A
:1004C00065030EF4E0950B2EBA2FA02D0B01B90198
:1004D00090010C01CA01A0011124FF27591B99F0BA
:1004E000593F50F4503E68F11A16F040A22F232FC6
:1004F000342F4427585FF3CF469537952795A79516
:10050000F0405395C9F77EF41F16BA0B620B730BBC
:10051000840BBAF09150A1F0FF0FBB1F661F771F2D
:10052000881FC2F70EC0BA0F621F731F841F48F4E2
:10053000879577956795B795F7959E3F08F0B0CF6B
:100540009395880F08F09927EE0F97958795089552
:100550000E94AF026894B1110C94660308950E9442
:100560004B0388F09F5798F0B92F9927B751B0F0F7
:10057000E1F0660F771F881F991F1AF0BA95C9F727
:1005800014C0B13091F00E946503B1E008950C945D
:100590006503672F782F8827B85F39F0B93FCCF310
:1005A000869577956795B395D9F73EF490958095A4
:1005B000709561957F4F8F4F9F4F0895E89409C0C4
:1005C00097FB3EF490958095709561957F4F8F4F86
:1005D0009F4F9923A9F0F92F96E9BB279395F6959C
:1005E000879577956795B795F111F8CFFAF4BB0F1A
:1005F00011F460FF1BC06F5F7F4F8F4F9F4F16C07E
:10060000882311F096E911C0772321F09EE8872F07
:10061000762F05C0662371F096E8862F70E060E0C3
:100620002AF09A95660F771F881FDAF7880F96953C
:10063000879597F9089597F99F6780E870E060E0E3
:1006400008959FEF80EC089500240A94161617066B
:1006500018060906089500240A94121613061406B3
:1006600005060895092E0394000C11F4882352F016
:10067000BB0F40F4BF2B11F460FF04C06F5F7F4FCE
:100680008F4F9F4F089557FD9058440F551F59F0B5
:100690005F3F71F04795880F97FB991F61F09F3F6F
:1006A00079F087950895121613061406551FF2CF98
:1006B0004695F1DF08C0161617061806991FF1CFE8
:1006C00086957105610508940895E894BB2766270F
:1006D0007727CB0197F908950E947F030C9432038A
:1006E0000E94240338F00E942B0320F0952311F080
:1006F0000C941B030C94210311240C9466030E9498
:10070000430370F3959FC1F3950F50E0551F629F0F
:10071000F001729FBB27F00DB11D639FAA27F00D5A
:10072000B11DAA1F649F6627B00DA11D661F829F81
:100730002227B00DA11D621F739FB00DA11D621F66
:10074000839FA00D611D221F749F3327A00D611D83
:10075000231F849F600D211D822F762F6A2F112465
:100760009F5750409AF0F1F088234AF0EE0FFF1F98
:10077000BB1F661F771F881F91505040A9F79E3FEF
:10078000510580F00C941B030C9466035F3FE4F367
:10079000983ED4F3869577956795B795F795E79545
:1007A0009F5FC1F7FE2B880F911D9695879597F94E
:1007B0000895FA01EE0FFF1F309621053105A1F1D2
:1007C0006115710561F48038BFE39B0749F16894B6
:1007D0009038810561F08038BFEF9B0741F0992385
:1007E0004AF5FF3FE1053105210519F1E894089428
:1007F000E795D901AA2329F4AB2FBE2FF85FD0F3D8
:1008000010C0FF5F70F4A695E0F7F73950F019F0CB
:10081000FF3A38F49F779F930DD00F9007FC9058C4
:10082000089546F00C94210360E070E080E89FE3B7
:1008300008954FE79F775F934F933F932F930E94C5
:10084000D4042F913F914F915F910E946C030C94BF
:10085000310429F416F00C941B030C9465030C94DA
:1008600021030E944B03A8F39638A0F707F80F92D4
:10087000E8942BE33AEA48EB5FE70E9482030F9289
:100880000F920F924DB75EB70F920E941C05E8E6DB
:10089000F0E00E9463044F915F91EF91FF91E59525
:1008A000EE1FFF1F49F0FE57E0684427EE0F441F7C
:1008B000FA95E1F74195550B0E9496040F9007FEBB
:1008C0000C948A040895DF93CF931F930F93FF92A4
:1008D000EF92DF927B018C01689406C0DA2EEF0163
:1008E0000E947F03FE01E894A591259135914591E1
:1008F0005591A6F3EF010E945302FE019701A80152
:10090000DA9469F7DF90EF90FF900F911F91CF91EC
:10091000DF9108959B01AC0160E070E080E89FE307
:100920000C9450050C941B030C94C2050E944B03BD
:10093000D8F39923C9F3940F511DA3F3915050405C
:1009400094F059F0882332F0660F771F881F91507A
:100950005040C1F79E3F51052CF7880F911D969589
:10096000879597F908955F3FACF0983E9CF0BB27C0
:10097000869577956795B79508F4B1609395C1F71B
:10098000BB0F58F711F460FFE8CF6F5F7F4F8F4FB9
:100990009F4FE3CF0C94660316F00C94C2050C94A1
:1009A000210368940C941B030E944B03A8F3992322
:1009B000C1F3AEF3DF93CF931F930F93FF92C92F31
:1009C000DD2788232AF02197660F771F881FDAF723
:1009D00020E030E040E85FEB9FE3883920F0803E84
:1009E00038F021968F770E943C02E0E9F0E004C0E5
:1009F0000E943C02EDEBF0E00E9463048B01BE011B
:100A0000EC01FB2E6F5771097595771F880B990BB9
:100A10000E94E00228E132E741E35FE30E947F03A6
:100A2000AF2D9801AE01FF900F911F91CF91DF91F3
:100A30000E9453020C943203FA01DC01AA0FBB1F7F
:100A40009B01AC01BF5728F4222733274427507855
:100A500020C0B75190F4AB2F0024469537952795C9
:100A6000011CA395D2F3002071F0220F331F441F05
:100A7000B395DAF30ED00C943B0261307105A0E817
:100A80008A07B94630F49B01AC016627772788278F
:100A90009078309621F020833183428353830895E8
:100AA0000E9464050C9432030E942B0358F00E94AC
:100AB000240340F029F45F3F29F00C941B035111EB
:100AC0000C9466030C9421030E94430368F399235A
:100AD000B1F3552391F3951B550BBB27AA2762173A
:100AE0007307840738F09F5F5F4F220F331F441F47
:100AF000AA1FA9F335D00E2E3AF0E0E832D091507B
:100B00005040E695001CCAF72BD0FE2F29D0660F67
:100B1000771F881FBB1F261737074807AB07B0E8AA
:100B200009F0BB0B802DBF01FF2793585F4F3AF0B0
:100B30009E3F510578F00C941B030C9466035F3FB5
:100B4000E4F3983ED4F3869577956795B795F79536
:100B50009F5FC9F7880F911D9695879597F908951E
:100B6000E1E0660F771F881FBB1F621773078407BA
:100B7000BA0720F0621B730B840BBA0BEE1F88F7C9
:100B8000E09508959F3F31F0915020F48795779537
:100B90006795B795880F911D9695879597F9089554
:100BA00097FB072E16F4009407D077FD09D00E941A
:100BB000E40507FC05D03EF4909581959F4F08957C
:100BC000709561957F4F0895AA1BBB1B51E107C02B
:100BD000AA1FBB1FA617B70710F0A61BB70B881FCD
:100BE000991F5A95A9F780959095BC01CD0108955C
:040BF000F894FFCFA7
:00000001FF
