S00D00005350495F4D2E737265637F
S11300000C9475000C9492000C9492000C94920041
S11300100C9492000C9492000C9492000C94920014
S11300200C9492000C9492000C9492000C94920004
S11300300C9492000C9492000C9492000C949200F4
S11300400C9492000C9492000C94C9000C949200AD
S11300500C9492000C9492000C9492000C949200D4
S11300600C9492000C94920007634236B79BD8A775
S11300701A39685618AEBAAB558C1D3CB7CC5763C9
S1130080BD6DEDFD753EF6177231BF000000803F77
S113009008000000BE922449123EABAAAA2ABECD93
S11300A0CCCC4C3E00000080BEABAAAAAA3E000005
S11300B00000BF000000803F0000000000084178FD
S11300C0D3BB4387D1133D190E3CC3BD4282AD2B34
S11300D03E68EC8276BED98FE1A93E4C80EFFFBE2C
S11300E001C4FF7F3F000000000011241FBECFEFBA
S11300F0D8E0DEBFCDBF11E0A0E0B1E0EAEFFCE064
S113010002C005900D92A835B107D9F721E0A8E502
S1130110B1E001C01D92A935B207E1F70E94EF00DA
S11301200C947B060C9400002998089584B188628D
S113013084B9249884B1866084B985B1866085B910
S11301408CB58F7D8CBD8CB5877F8CBD8CB58B7F3A
S11301508CBD8CB581608CBD8CB58D7F8CBD8DB50F
S11301608E7F8DBD8CB580618CBD8CB580648CBD5B
S113017008958EBD0DB407FEFDCF08950DB407FE9E
S1130180FDCF8EB508958EBD0DB407FEFDCF8EB59F
S113019008951F920F920FB60F9211242F933F933D
S11301A04F935F936F937F938F939F93AF93BF937B
S11301B0EF93FF930E94C20180935801FF91EF9146
S11301C0BF91AF919F918F917F916F915F914F916B
S11301D03F912F910F900FBE0F901F901895F89498
S11301E00E9496000E94B10178948FE39CE90197E4
S11301F0F1F700C0000010E000E0D0E08091580169
S1130200823309F44FC028F4803351F08133D1F1A3
S113021098C0833309F456C0843309F462C091C092
S11302200E94940081E00E94C300C82F0E94CB0169
S11302308D2F0E94CB01802F0E94CB01812F0E9421
S1130240CB018AE00E94CB010E949400112309F49F
S11302507BC080E091E00E94D201802F90E0A0E07A
S1130260B0E0BA2FA92F982F8827AD2B812BBC0182
S1130270CD019C2B0E9463030E94DE018AE00E9450
S1130280CB015BC00E94940081E00E94B9000E94EF
S1130290BE00C82F0E949400112309F455C087E0C2
S11302A091E02DC00E94940082E00E94B9000E9457
S11302B0BE00C82F0E949400112309F445C089E1AF
S11302C091E01DC00E94940083E00E94B9000E9446
S11302D0BE00C82F0E9494001123B1F18BE291E07B
S11302E00EC00E94940082E00E94B9000E94BE00E9
S11302F0C82F0E949400112339F181E491E00E94F7
S1130300D201802F90E0A0E0B0E0DC01992788279B
S1130310B12B8D2BBC01CD017C2B0E9463030E9469
S1130320DE018AE00E94CB019FEF29E688E191502B
S113033020408040E1F700C0000000E0D0E0C0E0D1
S113034003C0CD2FD02F012F9FEF29E688E19150D4
S113035020408040E1F700C00000102F0D2FDC2F5B
S11303604DCF519A50981092C00088E98093C100F3
S113037086E08093C20087E690E09093C500809366
S1130380C40008958091C00087FF03C08091C60017
S1130390089580E008959091C00095FFFCCF80936C
S11303A0C6000895CF93DF93EC018991882319F057
S11303B00E94CB01FACFDF91CF9108953F924F92E3
S11303C05F926F927F928F929F92AF92BF92CF92E1
S11303D0DF92EF92FF920F931F93CF93DF93CDB7EA
S11303E0DEB72A970FB6F894DEBF0FBECDBF2B0140
S11303F03C010E942B03DB0177FF0AC0AA27BB271D
S1130400A61BB70B77FA709477F8709440E001C09C
S113041041E0FE01319620E030E07F010AE010E087
S1130420D22EAA30B1054CF0CD01B8010E9453067A
S11304308193DB012F5F3F4FF3CF109741F0D394AB
S1130440F701E20FF31FA08341110BC002C0411159
S113045003C08DE20E94CB01D11003C01982DD24B8
S1130460D3940D2D10E0E00EF11ECC24C394D12CB6
S113047081E0E81AF1080C151D057CF1F7013080C4
S113048080E3830D0E94CB01B8016C197D09072E0E
S1130490000C880B990B0E9463039B01AC0160E084
S11304A070E080E291E40E945C044B015C01632DE6
S11304B070E080E090E00E946303A50194010E9433
S11304C0EF039B01AC01C301B2010E94BE022B01E8
S11304D03C01FFEFCF1ADF0ACBCF8EE20E94CB01A3
S11304E020E030E040E251E4C301B2010E94EF0396
S11304F06B017C0120E030E040E452E40E94BF0242
S11305000E943203862F0E94CB01C701B6010E94CC
S11305102B03062E000C770B880B990B0E946303A8
S11305209B01AC01C701B6010E94BE0220E030E08D
S113053040E251E40E94EF0320E030E040E452E462
S11305400E94BF020E943203862F2A960FB6F894A7
S1130550DEBF0FBECDBFDF91CF911F910F91FF90F2
S1130560EF90DF90CF90BF90AF909F908F907F904F
S11305706F905F904F903F900C94CB015058BB27E5
S1130580AA270E94D6020C94B5030E94A70338F050
S11305900E94AE0320F039F49F3F19F426F40C9422
S11305A0A4030EF4E095E7FB0C949E03E92F0E944C
S11305B0C60358F3BA17620773078407950720F038
S11305C079F4A6F50C94E8030EF4E0950B2EBA2FFB
S11305D0A02D0B01B90190010C01CA01A001112445
S11305E0FF27591B99F0593F50F4503E68F11A16F1
S11305F0F040A22F232F342F4427585FF3CF469582
S113060037952795A795F0405395C9F77EF41F16A3
S1130610BA0B620B730B840BBAF09150A1F0FF0F6D
S1130620BB1F661F771F881FC2F70EC0BA0F621F59
S1130630731F841F48F4879577956795B795F79549
S11306409E3F08F0B0CF9395880F08F09927EE0FDE
S11306509795879508950E9432036894B1110C947C
S1130660E90308950E94CE0388F09F5798F0B92FAC
S11306709927B751B0F0E1F0660F771F881F991FD3
S11306801AF0BA95C9F714C0B13091F00E94E8038A
S1130690B1E008950C94E803672F782F8827B85F9A
S11306A039F0B93FCCF3869577956795B395D9F72B
S11306B03EF490958095709561957F4F8F4F9F4F35
S11306C00895E89409C097FB3EF490958095709541
S11306D061957F4F8F4F9F4F9923A9F0F92F96E98A
S11306E0BB279395F695879577956795B795F111FF
S11306F0F8CFFAF4BB0F11F460FF1BC06F5F7F4F9C
S11307008F4F9F4F16C0882311F096E911C07723AD
S113071021F09EE8872F762F05C0662371F096E8B6
S1130720862F70E060E02AF09A95660F771F881F85
S1130730DAF7880F9695879597F9089597F99F6743
S113074080E870E060E008959FEF80EC0895002455
S11307500A941616170618060906089500240A9422
S113076012161306140605060895092E0394000CA8
S113077011F4882352F0BB0F40F4BF2B11F460FF37
S113078004C06F5F7F4F8F4F9F4F089557FD905860
S1130790440F551F59F05F3F71F04795880F97FB41
S11307A0991F61F09F3F79F08795089512161306FB
S11307B01406551FF2CF4695F1DF08C0161617062A
S11307C01806991FF1CF869571056105089408955F
S11307D0E894BB2766277727CB0197F908950E94F1
S11307E002040C94B5030E94A70338F00E94AE03E0
S11307F020F0952311F00C949E030C94A40311246F
S11308000C94E9030E94C60370F3959FC1F3950FFE
S113081050E0551F629FF001729FBB27F00DB11D80
S1130820639FAA27F00DB11DAA1F649F6627B00D10
S1130830A11D661F829F2227B00DA11D621F739FF9
S1130840B00DA11D621F839FA00D611D221F749F07
S11308503327A00D611D231F849F600D211D822F4E
S1130860762F6A2F11249F5750409AF0F1F0882375
S11308704AF0EE0FFF1FBB1F661F771F881F9150A2
S11308805040A9F79E3F510580F00C949E030C94B0
S1130890E9035F3FE4F3983ED4F386957795679533
S11308A0B795F795E7959F5FC1F7FE2B880F911DCC
S11308B09695879597F90895FA01EE0FFF1F3096E4
S11308C021053105A1F16115710561F48038BFE39B
S11308D09B0749F168949038810561F08038BFEF37
S11308E09B0741F099234AF5FF3FE10531052105B6
S11308F019F1E8940894E795D901AA2329F4AB2FB8
S1130900BE2FF85FD0F310C0FF5F70F4A695E0F738
S1130910F73950F019F0FF3A38F49F779F930DD0D0
S11309200F9007FC9058089546F00C94A40360E0DF
S113093070E080E89FE308954FE79F775F934F93BC
S11309403F932F930E9457052F913F914F915F91B1
S11309500E94EF030C94B40429F416F00C949E0343
S11309600C94E8030C94A4030E94CE03A8F39638D5
S1130970A0F707F80F92E8942BE33AEA48EB5FE715
S11309800E9405040F920F920F924DB75EB70F921B
S11309900E949F05E8E6F0E00E94E6044F915F9113
S11309A0EF91FF91E595EE1FFF1F49F0FE57E068B8
S11309B04427EE0F441FFA95E1F74195550B0E9429
S11309C019050F9007FE0C940D050895DF93CF933E
S11309D01F930F93FF92EF92DF927B018C01689437
S11309E006C0DA2EEF010E940204FE01E894A591EC
S11309F02591359145915591A6F3EF010E94D602B8
S1130A00FE019701A801DA9469F7DF90EF90FF9057
S1130A100F911F91CF91DF9108959B01AC0160E08C
S1130A2070E080E89FE30C94D3050C949E030C942F
S1130A3045060E94CE03D8F39923C9F3940F511DA0
S1130A40A3F39150504094F059F0882332F0660F8C
S1130A50771F881F91505040C1F79E3F51052CF7D6
S1130A60880F911D9695879597F908955F3FACF08F
S1130A70983E9CF0BB27869577956795B79508F4C3
S1130A80B1609395C1F7BB0F58F711F460FFE8CF3D
S1130A906F5F7F4F8F4F9F4FE3CF0C94E90316F0A6
S1130AA00C9445060C94A40368940C949E030E9431
S1130AB0CE03A8F39923C1F3AEF3DF93CF931F932F
S1130AC00F93FF92C92FDD2788232AF02197660F01
S1130AD0771F881FDAF720E030E040E85FEB9FE300
S1130AE0883920F0803E38F021968F770E94BF022B
S1130AF0E0E9F0E004C00E94BF02EDEBF0E00E94E8
S1130B00E6048B01BE01EC01FB2E6F57710975954C
S1130B10771F880B990B0E94630328E132E741E3B6
S1130B205FE30E940204AF2D9801AE01FF900F9184
S1130B301F91CF91DF910E94D6020C94B503FA0164
S1130B40DC01AA0FBB1F9B01AC01BF5728F422276D
S1130B5033274427507820C0B75190F4AB2F00249A
S1130B60469537952795011CA395D2F3002071F083
S1130B70220F331F441FB395DAF30ED00C94BE0238
S1130B8061307105A0E88A07B94630F49B01AC01D5
S1130B906627772788279078309621F02083318341
S1130BA04283538308950E94E7050C94B5030E9481
S1130BB0AE0358F00E94A70340F029F45F3F29F0E8
S1130BC00C949E0351110C94E9030C94A4030E9409
S1130BD0C60368F39923B1F3552391F3951B550B81
S1130BE0BB27AA2762177307840738F09F5F5F4FFC
S1130BF0220F331F441FAA1FA9F335D00E2E3AF03B
S1130C00E0E832D091505040E695001CCAF72BD052
S1130C10FE2F29D0660F771F881FBB1F26173707A3
S1130C204807AB07B0E809F0BB0B802DBF01FF27D5
S1130C3093585F4F3AF09E3F510578F00C949E0311
S1130C400C94E9035F3FE4F3983ED4F386957795DB
S1130C506795B795F7959F5FC9F7880F911D96958E
S1130C60879597F90895E1E0660F771F881FBB1FEA
S1130C70621773078407BA0720F0621B730B840B97
S1130C80BA0BEE1F88F7E09508959F3F31F091501D
S1130C9020F4879577956795B795880F911D96955C
S1130CA0879597F9089597FB072E16F4009407D0BB
S1130CB077FD09D00E94670607FC05D03EF49095A5
S1130CC081959F4F0895709561957F4F0895AA1B54
S1130CD0BB1B51E107C0AA1FBB1FA617B70710F023
S1130CE0A61BB70B881F991F5A95A9F78095909555
S10D0CF0BC01CD010895F894FFCF74
S1130CFA462065733A200050726573696F6E2069E5
S1130D0A6E7465726E613A200050726573696F6E13
S1130D1A2065787465726E613A200054656D706559
S1130D2A72617475726120696E7465726E613A20BB
S1130D3A0054656D706572617475726120657874AA
S10B0D4A65726E613A2000009D
S9030000FC
